:020000040800F2
:100000000050002071160008FD140008FF140008BD
:100010000115000803150008051500080000000080
:100020000000000000000000000000003132000865
:100030000715000800000000D13200081533000841
:10004000B9160008B9160008B9160008B916000854
:10005000B9160008B9160008B9160008B916000844
:10006000B9160008B9160008B9160008B916000834
:10007000B9160008B9160008B916000809150008D5
:10008000B9160008B9160008B9160008B916000814
:10009000B9160008B9160008B9160008B916000804
:1000A000B9160008B9160008B9160008B9160008F4
:1000B000B9160008B916000819150008B916000885
:1000C000B9160008B9160008B9160008B9160008D4
:1000D000B916000829150008B9160008B916000855
:1000E000B9160008B9160008B9160008000000008B
:1000F0000000000000000000000000000000000000
:0C01000000000000000000005FF808F1A3
:1001100010B5054C237833B9044B13B10448AFF341
:1001200000800123237010BD440400200000000063
:10013000B054000808B5034B1BB103490348AFF3A3
:10014000008008BD0000000048040020B0540008F2
:1001500003685A004CBF43F0004323F000431844A7
:10016000704700BF2DE9F84339B34F1E04461546CA
:100170003E464FF0000808EB060101EBD171491033
:1001800004EBC1094846FFF7E3FF0346C800083007
:100190008F4220440BD0AB420BD8FFF7D9FF013878
:1001A000A84201F10108E6D34846BDE8F883AB4216
:1001B000FAD9884501D04E1EDDE74FF000094846C8
:1001C000BDE8F883012807D0022807D0044B002897
:1001D0000CBF18460020704702487047024870471D
:1001E000B5080008B9080008BD08000830B5244B60
:1001F000044683B08D1E3BB3284601A9AFF30080AF
:10020000E8B101992A46FFF7ADFF0146B8B1FFF703
:100210009FFF4B68A064012B2ED0002B27DB081D0D
:10022000FFF796FF0023C4E913030368002B12DBDA
:10023000FFF78EFF03460020236103B030BD00238B
:100240000920236103B030BD0E4B0F491846C91A6F
:10025000C9100191D6E7C3F30360FFF7B3FF00288D
:10026000034614BF00200920236103B030BD0123E1
:10027000081DC4E91303D8E7002305202361DCE748
:1002800000000000B055000840570008036810B592
:10029000DA07044606D49B0700F1480009D500F0B0
:1002A0005DFC2368590709D51A070ED5DB0613D55F
:1002B00010BD00F04BFC23685907F5D404F1D000C1
:1002C00000F054FC23681A07F0D404F5A87000F07D
:1002D00055FC2368DB06EBD404F5E870BDE810405C
:1002E00000F090BC092070470346006800B1184434
:1002F000704700BF704700BF70B504460E462046E9
:10030000316CFFF773FF054698B9D6F840C0324606
:10031000214601202369C4F814C098470828EED06C
:10032000072806D12846316CFFF7E4FF301D00F0A6
:1003300001FC04F079FF00BF2DE9F0474FF0000AFF
:10034000ADF5727D0DF10C0E01F1040CC768D0F80B
:10035000188006461446BCE80F00AEE80F00BCE863
:100360000F00AEE80F00BCE80F00AEE80F009CE8FD
:100370000F0002AD8EE80F00C5F800A021E02B6C45
:100380004FF4F072294673617AA800F06FFE31468F
:10039000504633697AAA9847889C82466C643346F3
:1003A000324649460120CDE90058B8470446F0B925
:1003B0004FF4F07228467AA900F058FEBAF1080FFF
:1003C0001BD13046296CFFF711FF04F109095FFAD0
:1003D00089FA04460028D2D0A96B334669643246B4
:1003E0000120CDE900584AF01001B84700B10924B6
:1003F00020460DF5727DBDE8F087BAF1070FF6D102
:100400002046296CFFF776FF03A800F093FB00BF9E
:10041000406C7047F0B54FF0FF37CB6BF9B00B6411
:1004200001AC01F1040C0E460546BCE80F000FC4F8
:10043000BCE80F000FC4BCE80F000FC49CE80F001D
:1004400084E80F00009706E06A4629462B69984722
:100450000828044608D128461099FFF7C7FE00284F
:10046000F2D0092079B0F0BD6846FFF70FFF062CE7
:10047000F7D131462846FFF73FFF00BF10B41446BE
:100480008461DC6BC16000221C64194610BC53E718
:1004900070B54369C6680B64AEB90A460369044681
:1004A0000D46014602209847072805D008280FD19D
:1004B00029462046FFF720FF3046296CFFF71AFF38
:1004C000281D00F037FB0122FFF736FF04F0ACFED9
:1004D00004F0AAFEC2682AB1D1F83CC00022C1F8DB
:1004E00040C029E796E700BF704700BF8368014618
:1004F0000BB1012018477047012912D009D873B9F0
:100500000F2A0CD800EB820042681846009B1A6044
:1005100070470339012994BF01200220704702204F
:1005200070470846704700BF002300B585B00A46F3
:1005300003A900911946FFF7DFFF039805B05DF8A6
:1005400004FB00BF012912D009D873B90F2A0CD8B7
:10055000009900EB82020968184651607047033920
:10056000012994BF012002207047022070470846ED
:10057000704700BF002310B584B003AC0392009411
:100580000A461946FFF7DEFF04B010BD70B54FF004
:10059000FF36D36BADF50E7D13640DF15C0E02F1E9
:1005A000040C05460C46BCE80F00AEE80F00BCE8A2
:1005B0000F00AEE80F00BCE80F00AEE80F009CE8AB
:1005C0000F008EE80F00169612E00C2116A86A465E
:1005D000FFF7D0FF214616A8A84778B9694608203A
:1005E000049B16AA98470528064608D0092805D076
:1005F00068462699FFF7FAFD0028E6D0092616A8D6
:10060000FFF744FE30460DF50E7D70BD2DE9F04F2D
:100610001E46CC6C89B054F8043B0D46174600F0DA
:1006200003080694002E79D002228DF81C201A0CA3
:100630008DF81D201B04D2B2059304EB82042B6DB0
:10064000B8F1020F08BFAC6B13F001030CD03846B1
:1006500005A900F071FB18B9082009B0BDE8F08FBA
:10066000092009B0BDE8F08FD4F800A0BAF1000F5E
:10067000EDD0019300F008030293022E4AD0B4F8A3
:1006800000A0B4F802900434AA6C0F21384629F077
:10069000010B9344FFF748FF834539D82AF0010244
:1006A0005A44824294BF002001204FEA490303F0DC
:1006B00002030AF0010A43EA0A03012B49D0022B84
:1006C00032D0002BCCD1B8F1000F02D0002840F07E
:1006D000CE800434D4F800A0BAF1000FCDD1384652
:1006E00005A900F029FB0028BAD1019B002BB3D04B
:1006F0000F213846FFF718FF0E2102463846FFF754
:1007000039FF38460F216A4AFFF734FF0720A8E770
:100710000020CAE7D4F804900834B5E71B0205931B
:100720000323ADF81C308AE7236823F0004BB8F1AF
:10073000000F45D128B1029A002A5CD0BBF1000F0E
:1007400074D0002B00DA04340BF1010B04EB8B04A2
:10075000C0E7B8F1000F19D1B0B163682268991CE5
:100760004FEAD2723FF47CAF05F158010133049196
:1007700000F09180201DFFF7B7FD04AB014628462D
:10078000AFF3008000285CD10834A3E70D21384680
:10079000D5F82090FFF7C8FE8145F5D1AB6A9C42A1
:1007A000F2D12046FFF7D4FC0F2102463846FFF76E
:1007B000E1FE38462A460021FFF7DCFE072050E71D
:1007C0000D213846D5F82090FFF7AEFE814501D0C7
:1007D0002368B6E7AB6A9C42FAD104230022C5E93C
:1007E0000B23E318C5F828B06B632368002B5ADB92
:1007F00001230193A8E705F15803CDF80C80914639
:10080000B04604F1040A1E460EE050460496FFF777
:100810006BFD0022014604AB284609F101090AF1EB
:10082000040AAFF30080E8B9D945EED10D2138466E
:10083000FFF77AFE0346049A0620C5E909242B62D5
:100840000FE781460D213846FFF76EFEB9F1020F22
:10085000286225D12B46049A43F82C2F6B62062080
:10086000AC62FEE646462368DDF80C8069E7204668
:10087000FFF76EFC02460434AC6328461446AFF31F
:10088000008000283FF4ECAE384622460F21FFF7E7
:1008900071FE0720E5E60D213846FFF745FE286288
:1008A000049B6B62DBE70BF1010004EB800079E74E
:1008B000000000000023A9E60123A7E60223A5E625
:1008C0002DE9F043064615461C46C3B0042900F244
:1008D000B880DFE801F09C56B62D0300002C40F0F4
:1008E000B080102A00F2AD800368D80600F1F180D4
:1008F00020AF384600F090F9012438460023B16B50
:1009000004FA03F22A4203F1010305D00A4652F821
:1009100004CB1146C0F800C0042B00F10400EFD155
:100920003846B16300F06EF9002043B0BDE8F083B3
:10093000032C40F0868094B204EB1243102B4FEA54
:1009400012457ED803681F0700F1CB8020AF3846E0
:1009500000F036F9B26B07EBC50154B10B4601EB61
:10096000C401D01AE4001D5843F8045B8B42FAD14D
:1009700022443846B26300F001F9002043B0BDE8DC
:10098000F083012C4FEA124895B256D0052C58D16D
:1009900008EB0509B9F1200F53D8B8F10F0F73D93F
:1009A000A946002D40F08480B36B65B320AF4FF0B3
:1009B000000907EBC807043F03EBC50553F8041B08
:1009C000AB4247F8041FF9D1B9F1000F0FD06F46C1
:1009D0004146102938BF102107EBC101843903EBD0
:1009E000C90553F8040BAB4241F8040FF9D1012CAF
:1009F0007FD0B8F10F0FB56342D9B9F1000F02D023
:100A0000684600F0B3F8002043B0BDE8F083C4B9F5
:100A100023460124826B371DA8B204FA03F1014278
:100A20001CBF52F8041B47F823100133102BF4D1DC
:100A300015F40050E7D1B26304E008EB0503102B76
:100A400003D9022043B0BDE8F083B8F10F0FF8D806
:100A50003368DA0706D5304623F0030340F8483BF5
:100A600000F078F820AF384600F074F8B36B002D32
:100A70009DD11D4604353846B56300F067F8C2E7DE
:100A800020A800F06BF8B8E7B9F1100F3FD9A9F131
:100A900010093368D90708D5304623F0010343F025
:100AA000020340F8483B00F05DF8B9F1000F31D087
:100AB00033685A071FD4B8F10F0F24D96F46C8F115
:100AC0001005384600F056F8002DB36B80DD20AFDE
:100AD0006FE723F01003336006F5E87000F09CF830
:100AE00006E723F00803036000F5A87000F068F83B
:100AF0002CE720AFBEE7304623F0040340F8D03B9C
:100B000000F038F8D7E720A800F02CF8D6E74FF02F
:100B10000009BEE7B8F10F0F3FF646AF20AF3846E9
:100B200000F020F8B36B002D7FF441AF384600F0A1
:100B300015F868E700F1340191E838009C46A646B4
:100B40004CF8045D90E8FF0FE54600BD90EC210BEA
:100B5000704700BF80EC210B704700BF90EC200B6A
:100B6000704700BF80EC200B704700BFD0EC200B1B
:100B7000704700BFC0EC200B704700BFF0EC0201D3
:100B8000F0EC0211F0EC0221F0EC0231F0EC024149
:100B9000F0EC0251F0EC0261F0EC0271F0EC028139
:100BA000F0EC0291F0EC02A1F0EC02B1F0EC02C129
:100BB000F0EC02D1F0EC02E1F0EC02F1704700BF82
:100BC000E0EC0201E0EC0211E0EC0221E0EC023189
:100BD000E0EC0241E0EC0251E0EC0261E0EC027179
:100BE000E0EC0281E0EC0291E0EC02A1E0EC02B169
:100BF000E0EC02C1E0EC02D1E0EC02E1E0EC02F159
:100C0000704700BFB0FC0181B0FC0191B0FC01A1B4
:100C1000B0FC01B1704700BFA0FC0181A0FC0191B4
:100C2000A0FC01A1A0FC01B1704700BFEC4600B5DB
:100C30002DE900502DE9FF1F4FF000032DE90C00B6
:100C400001A9FFF7E7FBDDF840E012B0704700BFF5
:100C5000EC4600B52DE900502DE9FF1F4FF00003D1
:100C60002DE90C0001A9FFF713FCDDF840E012B0FC
:100C7000704700BFEC4600B52DE900502DE9FF1F7D
:100C80004FF000032DE90C0001A9FFF723FCDDF86C
:100C900040E012B0704700BFEC4600B52DE90050AF
:100CA0002DE9FF1F4FF000032DE90C0001ABFFF70A
:100CB000E5FBDDF840E012B0704700BFEC4600B540
:100CC0002DE900502DE9FF1F4FF000032DE90C0026
:100CD00001AAFFF75BFCDDF840E012B0704700BFEF
:100CE000027A03467AB9427AA2B14FF0030C416806
:100CF000013A427208680A1D5A60020283F808C06D
:100D0000000E1A6070470068013A1A7202021A60F7
:100D1000000E7047B0207047002300B585B003A9CE
:100D200000910C221946FFF7E7FB039805B05DF828
:100D300004FB00BFF0E700BF2DE9F0434FF00008CF
:100D400005460E4685B03046FFF7CAFFB028044678
:100D500000F0BA80070620D500F0F003802B4DD0BC
:100D6000902B36D0A02B60D0B02B73D0C02B00F0CE
:100D70008A8000F0F803D02B0BD100F0070201327B
:100D800005230121284642F40022FFF799FD00289F
:100D9000D9D0092005B0BDE8F0838300DBB21F1D68
:100DA00000230DF10C0919460D222846CDF80090BC
:100DB000FFF7A2FB039B60064CBFDF1BFF1800235D
:100DC0000D2228461946CDF800900397FFF7BAFB8D
:100DD000B9E700F00D030D2BDBD0002303AF19465C
:100DE00000F00F0200972846FFF786FB00230D2234
:100DF000284619460097FFF7A5FBA4E73046FFF702
:100E00006FFF24022043B0F5004FC2D0002304013D
:100E100019462846A2B2FFF753FD0028B9D114F4B1
:100E2000004F18BF4FF001088DE7C3434FF47F62B6
:100E300003F007031A410023010702F47F6248BF51
:100E400042F4804228461946FFF73AFD00283FF455
:100E50007AAF9EE7B1283CD0B22800F0B080B3282A
:100E60004AD000F0FC03B42B93D0012300F007021A
:100E70001A442846194642F40022FFF721FD0028B3
:100E80003FF461AF85E7C6284FD0C72861D000F096
:100E9000F803C02B70D0C8287CD0C9287FF479AF64
:100EA0003046FFF71DFF05230246012128461403A3
:100EB00002F00F0204F470240A442243FFF700FDFD
:100EC00000283FF440AF64E7B8F1000F1CD00020C9
:100ED00060E73046FFF704FF024600283FF459AFB1
:100EE00010F0F0037FF455AF19462846FFF7E8FCF1
:100EF00000283FF428AF4CE73046FFF7F1FE01230E
:100F0000024619462846D2E703AC43460E22414624
:100F100028460094FFF7F0FA43460F222846414640
:100F20000094FFF70FFB404634E73046FFF7D8FE4A
:100F300002460323140302F00F0204F4702401326A
:100F4000284619462243FFF7BBFC00283FF4FBAEBE
:100F50001FE73046FFF7C4FE024600283FF419AFF2
:100F600010F0F0037FF415AF04212846FFF7A8FC2A
:100F700000283FF4E8AE0CE7032300F00F02013233
:100F80002846194642F42022FFF79AFC00283FF435
:100F9000DAAEFEE63046FFF7A3FE0246012102F07C
:100FA000F00402F00F0210340A440523284642EAF6
:100FB0000432FFF785FC00283FF4C5AEE9E60023C4
:100FC0000DF10C090D2219462846CDF80090FFF7C7
:100FD00093FA3046FFF784FE02064FF002040CD568
:100FE000039B00F07F00A040184403903046FFF7B9
:100FF00077FE030604F10704F2D4039B00F07F029E
:10100000A24003F501731A440023039228460D22DF
:101010001946CDF80090FFF795FA94E60B464FF08D
:10102000030C00B5C26C1846536885B008320292B2
:1010300001A91A0E1B028DF80CC001938DF80D202A
:10104000FFF77AFE05B05DF804FB00BF08B5FFF7B7
:1010500071FE806C08BD00BF08B5FFF76BFEC06C69
:10106000C379023300EB830008BD00BF844641EA28
:10107000000313F0030349D1403A23D30B68036004
:101080004B6843608B688360CB68C3600B69036106
:101090004B6943618B698361CB69C3610B6A0362EE
:1010A0004B6A43628B6A8362CB6AC3620B6B0363D6
:1010B0004B6B43638B6B8363CB6BC36340304031BB
:1010C000403ADBD230320BD30B6803604B6843608D
:1010D0008B688360CB68C36010301031103AF3D254
:1010E0000C3205D351F8043B40F8043B043AF9D2E2
:1010F000043208D0D2071CBF11F8013B00F8013BB5
:1011000001D30B8803806046704700BF082A13D3C1
:101110008B07B1D010F00303AED0C3F10403D21A91
:10112000DB071CBF11F8013B00F8013BA4D331F8E9
:10113000023B20F8023B9FE7043AD9D3013A11F869
:10114000013B00F8013BF9D20B7803704B784370F8
:101150008B78837060467047012800D07047F8B5DF
:101160004FF6FF73994200D0F8BD154E304603F09C
:10117000F0FC144C22461449304604F04FF8134D4D
:1011800032461349284603F077FE22461149284685
:1011900004F044F8104E3121304603F06CFD224635
:1011A0000E49304604F03AF80D4F3246294638468B
:1011B00003F068FD22460B49384604F02FF8D3E7C8
:1011C0006004002000000020694B00087409002022
:1011D000C0120020894E000870080020ED4B000866
:1011E000880D0020A94C000808B5024803F04DFE08
:1011F00008BD00BF7409002000B591B0C82340228B
:101200006946054803F022FE0028F7D002466946E9
:10121000014803F09DFDF1E7880D002008B50A465E
:101220000146024803F03AFE08BD00BF74090020E1
:1012300008B50146014803F075FE08BD7409002099
:1012400010B5044601224FF40051044800F05CFD43
:101250002146034803F076FE10BD00BF0010014098
:101260007409002008B50146014803F07BFE08BD63
:101270007409002008B54FF6FF710120FFF76CFFDD
:1012800008BD000000B583B00A4B5A6942F0010264
:101290005A615B6903F001030193019B0022052160
:1012A0000F2000F041FA0F2000F076FA03B05DF84D
:1012B00004FB00BF0010024008B5FFF795FFFFF7E1
:1012C0009BFF012001F0ECFEFBE7000008B5044A9B
:1012D0000021044801F06EFE034B186008BD00BFFA
:1012E000D8540008B91200083012002030B589B077
:1012F00000240494059406940794184B9A6942F0CC
:1013000010029A619A6902F010020192019A9A6998
:1013100042F020029A619A6902F020020292029A37
:101320009A6942F004029A619B6903F004030393F3
:10133000039B0B4D22464FF40051284600F0E4FC7D
:101340004FF400530493012305930694022307935B
:1013500004A9284600F0C6FB09B030BD00100240C9
:101360000010014008B50268034B9A4200D008BD46
:1013700000F0B6F9FBE700BF0008004072B6FEE7D8
:1013800000B591B02822002106A803F08BFF0023AE
:1013900001930293039304930593012206924FF461
:1013A000803307930A9202220D920E934FF4E013BA
:1013B0000F9306A800F0C4FC80B90F23019302210B
:1013C0000291002303934FF480620492059301A8D5
:1013D00000F0E8FE20B911B05DF804FBFFF7CEFF86
:1013E000FFF7CCFF08B500F069F9FFF7C9FFFFF779
:1013F0007DFFFFF747FF00F0B1F801F093FDFFF725
:1014000065FF01F0B1FDFEE700B583B0114B9A69AD
:1014100042F001029A619A6902F001020092009A78
:10142000DA6942F08052DA61DB6903F0805301939C
:10143000019B00220F216FF0010000F075F9064AB0
:10144000536823F0E06343F00073536003B05DF82A
:1014500004FB00BF001002400000014030B589B01D
:101460000446214BDA6942F00402DA61DB6903F0D9
:1014700004030193019B02A903A800F06FFF069BE0
:10148000CBB900F04BFF03461848A0FB03239B0C8D
:10149000013B1748174A026040F2E732C2604360DE
:1014A000002303618360836101F0A8F8054630B131
:1014B000284609B030BD00F031FF4300E4E70C4896
:1014C00000F06CFF05460028F2D11E2000F064F900
:1014D0000F2C01D90125EBE7002221461E2000F048
:1014E00023F9054B1C60E3E70010024083DE1B4339
:1014F00034120020000800400C000020FEE7FEE748
:10150000FEE7FEE7FEE7704708B5024800F048FA3C
:1015100008BD00BF7C12002008B5024800F076FF2D
:1015200008BD00BF3412002008B5024801F0D4FA0B
:1015300008BD00BFC01200200120704708B503F0AD
:1015400087FE162303604FF0FF3008BD08B54FF04B
:10155000FF31FFF7F3FFFEE77047000008B50A48C8
:101560000A4B03604FF46123436000238360C36030
:1015700003610C2242618361C36101F069F900B922
:1015800008BDFFF7FBFEFBE7C0120020003801405A
:1015900070B586B000230293039304930593026809
:1015A000274B9A4201D006B070BD044603F558435C
:1015B0009A6942F480429A619A6902F480420092E8
:1015C000009A9A6942F004029A619B6903F004034D
:1015D0000193019B4FF400730293022303930323AF
:1015E0000593184E02A9304600F07CFA4FF4806350
:1015F000029300250395049502A9304600F072FA83
:101600001148124B0360456085608023C36005610B
:10161000456185614FF44053C36100F0E1F858B96A
:10162000094BE3635C6200220521252000F07CF871
:10163000252000F0B1F8B6E7FFF7A0FEF0E700BF05
:1016400000380140000801407C1200205800024090
:1016500008B5FFF7E3FD08BD08B5FFF7E9FD08BDD4
:1016600008B5FFF7EDFD08BD08B5FFF7FBFD08BDA8
:10167000FFF772FF0B480C490C4A002302E0D458D4
:10168000C4500433C4188C42F9D3094A094C0023CE
:1016900001E013600432A242FBD303F0DFFDFFF749
:1016A000A1FE7047000000204404002050570008AD
:1016B000440400205C400020FEE7000008B5074A13
:1016C000136843F010031360032000F01BF80F2091
:1016D000FFF7C4FEFFF798FE002008BD002002407F
:1016E000034A1168034B1B780B441360704700BF1B
:1016F0000813002008000020014B1868704700BF45
:1017000008130020074AD36823F4E0631B041B0C72
:10171000000200F4E060034343F0BF6343F400338E
:10172000D360704700ED00E000B5194BDB68C3F3F0
:101730000223C3F1070CBCF1040F28BF4FF0040CC7
:1017400003F1040EBEF1060F18D9033B4FF0FF3E24
:101750000EFA0CFC21EA0C0199400EFA03F322EA7E
:101760000303194300280BDB0901C9B200F16040F3
:1017700000F5614080F800135DF804FB0023E5E705
:1017800000F00F000901C9B2024B1954F4E700BF81
:1017900000ED00E014ED00E0002807DB00F01F0280
:1017A000400901239340024A42F82030704700BFAD
:1017B00000E100E030B40124056CAC40C56B6C6006
:1017C000046863604368102B05D003689960036860
:1017D000DA6030BC704703689A600368D960F8E744
:1017E00060B310B402460168154B0B441548A0FBCA
:1017F00003031B099B001364134BD363022382F87A
:101800002130086820F47F5020F03000536894683D
:101810002343D468234314692343546923439469BD
:101820002343D469234303430B60002090630123C7
:1018300082F8213082F8200010BC704701207047E8
:10184000F8FFFDBFCDCCCCCC0000024038B504463B
:1018500090F82000012832D0012084F8200094F86C
:101860002100C0B2012804D0002384F820300220D7
:1018700038BD022084F821000020A0632568286874
:1018800020F0010028602046FFF794FFE36A5BB177
:101890002268136843F00E0313602268136843F054
:1018A000010313600020E3E72268136823F00403B8
:1018B00013602268136843F00A031360EDE7022007
:1018C000D6E790F82130DBB2022B06D004238363E5
:1018D000002380F82030012070470268136823F04D
:1018E0000E0313600268136823F001031360036C96
:1018F000C16B012202FA03F34B6080F82120002320
:1019000080F820301846704708B590F82130DBB2D7
:10191000022B03D004238363012008BD02681368EF
:1019200023F00E0313600268136823F001031360B1
:101930000368194A934214D0143293421FD01432D0
:1019400093421ED0143293421ED0143293421ED0C2
:101950001432934202D04FF0807203E04FF48012B1
:1019600000E001220D4B5A60012380F82130002352
:1019700080F82030436B6BB198470020CDE71022F0
:10198000F0E74FF48072EDE74FF48052EAE74FF44E
:101990008032E7E70020C0E7080002400000024074
:1019A00038B5C36B1A6804682568016C04238B4042
:1019B000134235D015F0040F32D0236813F0200FF6
:1019C00003D1236823F0040323600368434A93424E
:1019D00014D01432934218D01432934217D01432D8
:1019E000934217D01432934217D01432934202D04C
:1019F0004FF0806203E04FF4800200E00422384B95
:101A00005A60C36A03B1984738BD4022F7E74FF4E4
:101A10008062F4E74FF48042F1E74FF48022EEE772
:101A200002238B4013423CD015F0020F39D02368BB
:101A300013F0200F06D1236823F00A03236001234B
:101A400080F821300368254A934214D0143293421F
:101A50001CD0143293421BD0143293421BD0143248
:101A600093421BD01432934202D04FF0007203E035
:101A70004FF4001200E00222194B5A60002380F854
:101A80002030836A002BBFD09847BDE72022F3E7C0
:101A90004FF40072F0E74FF40052EDE74FF40032DC
:101AA000EAE7082303FA01F11142ADD015F0080F5F
:101AB000AAD0236823F00E032360026CC16B0123BC
:101AC00003FA02F24A60836380F82130002380F831
:101AD0002030036B002B97D0984795E70800024011
:101AE0000000024070B582B00024A446A6E0804DFC
:101AF000AA4210D007D97F4DAA420CD005F58035F7
:101B0000AA4208D013E0A5F58015AA4203D005F536
:101B10007025AA4207D18A68002A58D0012A51D0DC
:101B20004361082403E0A5F58015AA42F3D0BEF175
:101B3000FF0F4ED80646BEF1FF0F4CD84FEA8C027D
:101B400033680F25954023EA050304FA02F2134394
:101B500033604B6813F0805F6ED0674B9A6942F038
:101B600001029A619B6903F001030193019B4FEA13
:101B70009C02951C614B53F825600CF003039D00FB
:101B80000F23AB4026EA03065D4B984229D003F5AC
:101B90008063984200F08E8003F58063984200F0E5
:101BA0008B8003F58063984219D004231AE0CC6837
:101BB000BDE7CC680434BAE7CC680834B7E7CC6832
:101BC0000C34B4E703610824B1E70024AFE7042430
:101BD000ADE7061DAFE7ACF108029200B0E70323C2
:101BE00000E00023AB4033430232444D45F822303D
:101BF0004B6813F4801F61D0424A936843EA0E0396
:101C000093604B6813F4001F5ED03E4AD36843EAEA
:101C10000E03D3604B6813F4003F5BD0394A53681E
:101C200043EA0E0353604B6813F4803F58D0354AA3
:101C3000136843EA0E0313600CF1010C0A6832FAD0
:101C40000CF353D0012303FA0CF302EA030E33EA38
:101C50000202F1D14A68122A3FF649AF122A3FF632
:101C600066AF01A555F822F0171B0008AF1B00084E
:101C7000B91B0008CB1B00082F1B00082F1B0008F6
:101C80002F1B00082F1B00082F1B00082F1B00080C
:101C90002F1B00082F1B00082F1B00082F1B0008FC
:101CA0002F1B00082F1B00082F1B0008B31B000868
:101CB000BF1B0008012395E7022393E7114A9368AD
:101CC00023EA0E0393609CE70E4AD36823EA0E03CF
:101CD000D3609FE70B4A536823EA0E035360A2E7E1
:101CE000084A136823EA0E031360A5E702B070BD2B
:101CF00000002210000031100010024000000140DE
:101D000000080140000401400AB101617047090464
:101D10000161704782B0084B1B68084AA2FB03238D
:101D20005B0A00FB03F3019300BF019B5A1E019263
:101D3000002BF9D102B0704704000020D34D62108F
:101D4000002800F0F18170B582B00446036813F0FA
:101D5000010F2CD0994B5B6803F00C03042B1DD0B2
:101D6000964B5B6803F00C03082B12D06368B3F545
:101D7000803F41D0002B55D103F1804303F504335C
:101D80001A6822F480321A601A6822F480221A60DB
:101D900037E08A4B5B6813F4803FE7D0874B1B68C2
:101DA00013F4003F03D06368002B00F0BF81236869
:101DB00013F0020F75D0814B5B6813F00C0F5FD0EE
:101DC0007E4B5B6803F00C03082B54D02369002B77
:101DD00000F08A807A4B01221A60FFF78DFC0546DD
:101DE000764B1B6813F0020F75D1FFF785FC401B83
:101DF0000228F5D903209EE1704A136843F480332A
:101E00001360636843B3FFF777FC05466B4B1B68B1
:101E100013F4003FCBD1FFF76FFC401B6428F5D9CA
:101E2000032088E1B3F5A02F09D0644B1A6822F48F
:101E300080321A601A6822F480221A60E1E703F106
:101E40008043A3F53C331A6842F480221A601A6872
:101E500042F480321A60D4E7FFF74EFC0546574B38
:101E60001B6813F4003FA2D0FFF746FC401B642818
:101E7000F5D903205FE1514B5B6813F4803FA5D196
:101E80004E4B1B6813F0020F03D02369012B40F067
:101E90004F814A4A136823F0F803616943EAC1039A
:101EA0001360236813F0080F33D0A369002B5CD0B4
:101EB000434B0122C3F88024FFF71EFC05463F4B2D
:101EC0005B6A13F0020F21D1FFF716FC401B0228BA
:101ED000F5D903202FE1394A136823F0F80361692B
:101EE00043EAC1031360DCE7354B00221A60FFF7B9
:101EF00003FC0546314B1B6813F0020FD1D0FFF7EE
:101F0000FBFB401B0228F5D9032014E10120FFF759
:101F100001FF236813F0040F00F09680274BDB6964
:101F200013F0805F34D1254BDA6942F08052DA61D8
:101F3000DB6903F080530193019B0125214B1B6852
:101F400013F4807F26D0E368012B3DD0002B53D1C2
:101F500003F1804303F504331A6A22F001021A6286
:101F60001A6A22F004021A6233E0154B0022C3F809
:101F70008024FFF7C1FB0546104B5B6A13F0020F8C
:101F8000C7D0FFF7B9FB401B0228F5D90320D2E0E8
:101F90000025D3E70B4A136843F480731360FFF7FF
:101FA000ABFB0646074B1B6813F4807FCBD1FFF7D2
:101FB000A3FB801B6428F5D90320BCE0001002407D
:101FC00000004242007000405F4A136A43F0010380
:101FD0001362E36833B3FFF78FFB06465A4B1B6A65
:101FE00013F0020F2FD1FFF787FB801B41F28833DC
:101FF0009842F3D903209EE0052B09D0524B1A6A70
:1020000022F001021A621A6A22F004021A62E0E760
:102010004D4B1A6A42F004021A621A6A42F0010237
:102020001A62D6E7FFF768FB0646474B1B6A13F0B8
:10203000020F08D0FFF760FB801B41F28833984203
:10204000F3D9032077E0E5B9E369002B72D03E4A6B
:10205000526802F00C02082A56D0022B17D03B4BD4
:1020600000221A66FFF748FB0446374B1B6813F043
:10207000007F47D0FFF740FB001B0228F5D9032063
:1020800059E0314AD36923F08053D361DCE72F4B09
:1020900000221A66FFF730FB05462B4B1B6813F036
:1020A000007F06D0FFF728FB401B0228F5D903204C
:1020B00041E0236AB3F5803F1AD023494B6823F4EB
:1020C0007413226A606A024313434B601F4B012260
:1020D0001A66FFF711FB04461B4B1B6813F0007FC9
:1020E0000ED1FFF709FB001B0228F5D9032022E0DF
:1020F000154A536823F40033A1680B435360DCE7AF
:10210000002018E0002016E0012B16D00E4B5B6873
:1021100003F48031226A914211D103F47013626A90
:1021200093420ED1002006E001207047012002E01A
:10213000012000E0002002B070BD0120FBE701207B
:10214000F9E70120F7E700BF00100240000042421B
:102150000F4B5B6803F00C02082A01D00D48704752
:10216000C3F383420C49885C13F4803F0BD0084BC7
:102170005B68C3F34043094AD35C064A02FB00F0A4
:10218000B0FBF3F07047064B03FB00F0704700BF55
:102190000010024000127A0014550008245500086F
:1021A00000093D00002800F0A08070B50D460446EF
:1021B000524B1B6803F007038B420BD24F4A136844
:1021C00023F007030B431360136803F007038B42EC
:1021D00040F08D80236813F0020F17D013F0040F26
:1021E00004D0474A536843F4E0635360236813F014
:1021F000080F04D0424A536843F460535360404A86
:10220000536823F0F003A1680B435360236813F075
:10221000010F31D06368012B20D0022B25D0384A22
:10222000126812F0020F64D035494A6822F00302A6
:1022300013434B60FFF760FA0646314B5B6803F0CF
:102240000C036268B3EB820F16D0FFF755FA801BC0
:1022500041F288339842F0D9032045E0284A1268B9
:1022600012F4003FE0D101203EE0254A126812F04E
:10227000007FD9D1012037E0204B1B6803F0070312
:10228000AB420AD91D4A136823F007032B4313609E
:10229000136803F00703AB422DD1236813F0040F3A
:1022A00006D0174A536823F4E063E1680B43536098
:1022B000236813F0080F07D0114A536823F46053C2
:1022C000216943EAC1035360FFF742FF0C4B5B688F
:1022D000C3F303130B4AD35CD8400B4B18600B4B72
:1022E0001868FFF7BBF8002070BD0120704701207F
:1022F000FAE70120F8E70120F6E700BF00200240DE
:1023000000100240FC540008040000200C000020D3
:10231000014B1868704700BF0400002008B5FFF7A4
:10232000F7FF044B5B68C3F30223034AD35CD84036
:1023300008BD00BF001002400C55000808B5FFF7AB
:10234000E7FF044B5B68C3F3C223034AD35CD84066
:1023500008BD00BF001002400C5500080F230360A9
:102360000B4B5A6802F0030242605A6802F0F00216
:1023700082605A6802F4E062C2605B68DB0803F4C2
:10238000E0630361034B1B6803F007030B607047B6
:1023900000100240002002407047000090F83D30DD
:1023A000DBB2012B27D1022380F83D300268D368CD
:1023B00043F00103D3600368114A934210D0B3F194
:1023C000804F0DD0A2F59432934209D002F580627D
:1023D000934205D01A6842F001021A60002070474B
:1023E0009A6802F00702062A07D01A6842F0010232
:1023F0001A6000207047012070470020704700BF1E
:10240000002C0140704770477047704710B5044674
:1024100003681A6912F0020F11D0DA6812F0020F85
:102420000DD06FF002021A610123037703689B69E4
:1024300013F0030F70D0FFF7E6FF00232377236824
:102440001A6912F0040F12D0DA6812F0040F0ED0DD
:102450006FF004021A610223237723689B6913F447
:10246000407F5FD02046FFF7CEFF0023237723680D
:102470001A6912F0080F12D0DA6812F0080F0ED0A5
:102480006FF008021A61042323772368DB6913F0D5
:10249000030F4ED02046FFF7B6FF002323772368B3
:1024A0001A6912F0100F12D0DA6812F0100F0ED065
:1024B0006FF010021A61082323772368DB6913F495
:1024C000407F3DD02046FFF79EFF002323772368FF
:1024D0001A6912F0010F03D0DA6812F0010F36D139
:1024E00023681A6912F0800F03D0DA6812F0800FA7
:1024F00034D123681A6912F0400F03D0DA6812F061
:10250000400F32D123681A6912F0200F03D0DA6825
:1025100012F0200F30D110BDFFF774FF2046FFF7F7
:1025200073FF8AE72046FFF76DFF2046FFF76CFF39
:102530009BE72046FFF766FF2046FFF765FFACE705
:102540002046FFF75FFF2046FFF75EFFBDE76FF015
:1025500001021A612046FEF705FFC1E76FF0800215
:102560001A61204600F077F8C3E76FF040021A6165
:102570002046FFF74AFFC5E76FF020021A612046A8
:1025800000F068F8C7E7000003681B4A90420AD0D1
:10259000B0F1804F07D0A2F59432904203D002F5FB
:1025A0008062904203D123F070034A681343124AB9
:1025B00090420AD0B0F1804F07D0A2F594329042F9
:1025C00003D002F58062904203D123F44073CA68BD
:1025D000134323F080034A69134303608B68C3628B
:1025E0000B688362044B984202D001234361704719
:1025F0000B690363F9E700BF002C014040B310B53D
:10260000044690F83D30F3B1022384F83D30214672
:1026100051F8040BFFF7B8FF012384F8463084F823
:102620003E3084F83F3084F8403084F8413084F8FC
:10263000423084F8433084F8443084F8453084F8DC
:102640003D30002010BD80F83C30FFF7A5FEDBE7F1
:102650000120704770477047026802F10C0353E88D
:10266000003F23F0C0030C3242E800310029F3D1CF
:10267000202380F841307047026802F10C0353E8D0
:10268000003F23F490730C3242E800310029F3D16B
:10269000026802F1140353E8003F23F001031432EF
:1026A00042E800310029F3D1036B012B05D0202330
:1026B00080F84230002303637047026802F10C0384
:1026C00053E8003F23F010030C3242E800310029A8
:1026D000F3D1ECE790F84130DBB2212B01D002209E
:1026E00070478368B3F5805F17D0036A5A1C026293
:1026F0001A7803685A60C38C9BB2013B9BB2C384B7
:102700004BB90268D36823F08003D3600268D368B2
:1027100043F04003D360002070470369002BE4D1ED
:10272000036A1B880268C3F308035360036A023319
:102730000362E0E710B504460268136923F44053CE
:10274000C1680B43136183680269134342691A43EA
:102750000168CB6823F4B05323F00C031343CB6020
:102760000268536923F4407381690B435361026823
:10277000134B9A4220D0FFF7D1FD024602EB8202B2
:1027800002EB820263689B00B2FBF3F20D48A0FBF0
:1027900002314909642303FB11231B013233A0FBDF
:1027A00003235B0903F0F00202EB011203F00F03B5
:1027B000216813448B6010BDFFF7C0FD0246DDE7C2
:1027C000003801401F85EB512DE9F84305460F46BF
:1027D00016469946DDF820802C68246837EA040301
:1027E0000CBF4FF0010C4FF0000CB4452DD1B8F1E7
:1027F000FF3FF1D0B8F1000F05D0FEF77DFFA0EB51
:1028000009004045E8D92A6802F10C0353E8003F6B
:1028100023F4D0730C3242E800310029F3D12A6846
:1028200002F1140353E8003F23F00103143242E89D
:1028300000310029F3D1202385F8413085F842305A
:10284000002385F84030032000E00020BDE8F88335
:1028500060B310B5044690F8413013B3242384F8D4
:1028600041302268D36823F40053D3602046FFF739
:1028700061FF2268136923F490431361226853694E
:1028800023F02A0353612268D36843F40053D360D2
:1028900000206064202384F8413084F84230606373
:1028A00010BD80F84030FEF773FED7E70120704777
:1028B0002DE9F04182B01E4690F84130DBB2202B6A
:1028C0004BD104460D46904600294AD00AB9012052
:1028D00044E000234364212380F84130FEF70CFFDD
:1028E0000746A4F82480A4F82680A368B3F5805F87
:1028F00002D04FF000080FE02369FBB14FF0000851
:102900000AE038F8023B2268C3F308035360E28C04
:1029100092B2013A92B2E284E38C9BB28BB1009600
:102920003B46002280212046FFF74EFFD8B9002DFC
:10293000E7D015F8012B23685A60E8E7A846002580
:10294000EAE700963B46002240212046FFF73CFF85
:1029500058B9202384F8413000E0022002B0BDE8DD
:10296000F0810120FAE70320F8E70320F6E708B535
:102970000168CA6822F04002CA60202280F8412023
:10298000FEF76AFE002008BD704710B5446A236850
:102990005A6994F84130DBB2212B10D023685A6970
:1029A00002F0400294F84230DBB2222B11D0636C6B
:1029B00043F0100363642046FEF756FE10BD02F09C
:1029C0008002002AEAD00023E3842046FFF744FE79
:1029D000E4E7002AEBD00023E3852046FFF74CFE16
:1029E000E5E708B5406A0023C385C384FEF73CFED3
:1029F00008BD90F84230DBB2222B69D18368B3F571
:102A0000805F4FD0826AB3F5805F04D0002B56D12F
:102A10000369002B53D103685B681370836A013329
:102A20008362C38D9BB2013B9BB2C385002B51D106
:102A300000B583B00268D36823F02003D360026836
:102A4000D36823F48073D3600268536923F00103D1
:102A50005361202380F8423000234363036B012B32
:102A600033D100230363026802F10C0353E8003FF3
:102A700023F010030C3242E800310029F3D103683F
:102A80001A6812F0100F06D0002201921A68019203
:102A90005B680193019B818DFEF7DAFD002003B096
:102AA0005DF804FB0269002AACD1826A03685B68A6
:102AB000C3F308031380836A02338362B1E70368B8
:102AC0005B6803F07F031370A8E7FEF7C9FDE5E735
:102AD000022070470020704730B583B0044602687A
:102AE0001368D068516913F00F0505D113F0200F5A
:102AF00002D010F0200F19D12DB111F0010119D120
:102B000010F4907F16D1216B01297DD013F0800F36
:102B100003D010F0800F40F0188113F0400F03D065
:102B200010F0400F40F0158103B030BD2046FFF794
:102B300060FFF9E713F0010F06D010F4807F03D097
:102B4000626C42F00102626413F0040F04D019B108
:102B5000626C42F00202626413F0020F04D019B1F9
:102B6000626C42F00402626413F0080F07D010F0A8
:102B7000200F00D119B1626C42F008026264626CED
:102B8000002AD1D013F0200F02D010F0200F29D14D
:102B900023685B6903F04003626C12F0080F00D1F8
:102BA00063B32046FFF768FD23685B6913F0400FAD
:102BB00020D0226802F1140353E8003F23F04003C1
:102BC000143242E800310029F3D1E36B73B1634A58
:102BD0005A63E06BFEF798FE0028A5D0E06B436BCC
:102BE0009847A1E72046FFF704FFD1E72046FEF70C
:102BF0003BFD99E72046FEF737FD95E72046FEF7B7
:102C000033FD002363648FE713F0100F3FF47EAFB2
:102C100010F0100F3FF47AAF002301931368019373
:102C200053680193019B536913F0400F51D0E26B3D
:102C300013685B689BB2002B3FF476AFA18D99427D
:102C40007FF672AFE3859369202B37D0226802F1BB
:102C50000C0353E8003F23F480730C3242E8003148
:102C60000029F3D1226802F1140353E8003F23F056
:102C70000103143242E800310029F3D1226802F145
:102C8000140353E8003F23F04003143242E80031BC
:102C90000029F3D1202384F84230002323632268E3
:102CA00002F10C0353E8003F23F010030C3242E81A
:102CB00000310029F3D1E06BFEF703FE02236363CA
:102CC000A18DE38D9BB2C91A89B22046FEF7C0FCE4
:102CD0002AE7A18DE38D9BB2C91A89B2E38D9BB21D
:102CE000002B3FF421AF00293FF41EAF226802F110
:102CF0000C0353E8003F23F490730C3242E8003099
:102D00000028F3D1226802F1140353E8003F23F0B6
:102D10000103143242E800300028F3D1202384F864
:102D2000423000232363226802F10C0353E8003F82
:102D300023F010030C3242E800300028F3D10223C4
:102D400063632046FEF784FCEEE62046FFF7C2FCF4
:102D5000EAE62046FFF70BFEE6E600BFE32900089F
:102D600008B5406A01234363036B012B02D0FFF7D0
:102D70000BFE08BD818D4908FEF76AFCF9E708B52E
:102D80000346406A1B681B6813F0200F2BD10023F9
:102D9000C385026802F10C0353E8003F23F48073FB
:102DA0000C3242E800310029F3D1026802F1140329
:102DB00053E8003F23F00103143242E800310029B8
:102DC000F3D1026802F1140353E8003F23F04003FB
:102DD000143242E800310029F3D1202380F8423038
:102DE000036B012B07D000234363036B012B0FD030
:102DF000FEF736FC08BD026802F10C0353E8003F01
:102E000023F010030C3242E800310029F3D1EAE745
:102E1000818DFEF71DFCEDE730B583B00446134607
:102E20008162828500254564222280F84220C26B9F
:102E30001F489062E26B1F48D062E26B1E4810632D
:102E4000E26B556320680A46011DE06BFEF7FEFC4D
:102E5000019523681A6801925B680193019B2369BD
:102E60005BB1226802F10C0353E8003F43F4807326
:102E70000C3242E800310029F3D1226802F1140338
:102E800053E8003F43F00103143242E800310029C7
:102E9000F3D1226802F1140353E8003F43F04003EA
:102EA000143242E800310029F3D1002003B030BDD4
:102EB0007F2D0008612D00088B29000890F8423012
:102EC000DBB2202B29D110B582B0044639B312B938
:102ED000012002B010BD0123036300234363FFF709
:102EE0009BFF0028F5D1236B012B01D00120F0E7D7
:102EF0000023019323681A6801925B680193019B88
:102F0000226802F10C0353E8003F43F010030C3237
:102F100042E800310029F3D1DBE7022070470120AD
:102F2000D7E70000EFF3058393B9EFF3108393B96C
:102F30000C4B1868022804D080B90A4B01221A6091
:102F40007047EFF31183002BF6D06FF00500704748
:102F50006FF0050070476FF0050070474FF0FF30CD
:102F6000704700BF6815002008B5EFF30583B3B9BB
:102F7000EFF31083B3B90E4B1B68022B08D0012B63
:102F800013D10B4B02221A6001F0D2F8002008BDC9
:102F9000EFF31182002AF2D06FF00500F7E76FF02F
:102FA0000500F4E76FF00500F1E74FF0FF30EEE7C2
:102FB00068150020F0B587B000240494EFF3058471
:102FC000002C43D1EFF31083002B3FD1334B1B6810
:102FD000022B16D0002839D000238DF8173062B3A9
:102FE000156895B1936903B918235C1E372C51D825
:102FF000546814F0010F4FD156694EB14FEA960C48
:1030000008E0EFF311830BBBE4E70DF11705E9E7E7
:103010004FF0800C94682CB1D7685B2F02D91769E8
:1030200007B1B6B914B14FF0FF340CE0D46894B9CD
:1030300014699CB14FF0FF3405E0002418234FF0D1
:10304000800C0DF11705012C0AD0ACB1049807B023
:10305000F0BD0124F7E74FF0FF34F4E70024F2E776
:10306000146992680292019400930B4662462946C5
:1030700000F0F0FF0490E9E704AA019200930B46E8
:103080001FFA8CF2294601F01FF80128DED0002338
:103090000493DBE70020DAE70020D8E7681500207A
:1030A00008B5EFF30583A3B9EFF31083A3B90C4B75
:1030B0001B68022B02D040B9002008BDEFF311833A
:1030C000002BF8D06FF00500F7E701F095F900202C
:1030D000F3E76FF00500F0E76FF00500EDE700BFE4
:1030E00068150020034B0360034B0B6080231360C3
:1030F000704700BF0C1500200C130020034B036029
:10310000034B0B604FF48073136070476C19002001
:103110006C15002000F1080343604FF0FF3282601D
:10312000C36003610023036070470023036170479D
:1031300043684B609A688A605160996008610368CF
:1031400001330360704730B40D68B5F1FF3F11D013
:1031500000F108031C465B681A68AA42FAD9636842
:103160004B6099608C6061600861036801330360A3
:1031700030BC70470469F2E70369416882688A607D
:10318000416851605A68824206D0002202611A6882
:10319000013A1A601868704782685A60F5E70000C3
:1031A00082B0002301930D4B1B68B3F1FF3F08D0A1
:1031B0004FF0500383F31188BFF36F8FBFF34F8F2E
:1031C000FEE74FF0500383F31188BFF36F8FBFF317
:1031D0004F8F019B002BFCD002B0704710000020E5
:1031E00006480068006880F3088862B661B6BFF3DD
:1031F0004F8FBFF36F8F00DF00BF000008ED00E0CE
:103200004FF0807340F8043C21F0010140F8081CA5
:10321000034B40F80C3C40F8202C4038704700BF6E
:10322000A1310008000000000000000000000000C4
:10323000074B19680868B0E8F00F80F30988BFF3FE
:103240006F8F4FF0000080F311884EF00D0E704725
:10325000283A00204FF0500383F31188BFF36F8F9B
:10326000BFF34F8F0B4A136801331360012B00D05B
:1032700070474FF0E023D3F8043D13F0FF0FF7D071
:103280004FF0500383F31188BFF36F8FBFF34F8F5D
:10329000FEE700BF10000020094B1B6843B94FF048
:1032A000500383F31188BFF36F8FBFF34F8FFEE797
:1032B000013B034A13600BB983F31188704700BFC9
:1032C00010000020000000000000000000000000CE
:1032D000EFF30980BFF36F8F0D4B1A6820E9F00FF1
:1032E00010602DE908404FF0500080F3118801F084
:1032F000A9F84FF0000080F31188BDE80840196874
:103300000868B0E8F00F80F30988BFF36F8F70474B
:10331000283A002008B54FF0500383F31188BFF31B
:103320006F8FBFF34F8F00F05FFF28B14FF0E023A6
:103330004FF08052C3F8042D002383F3118808BD99
:103340004FF0E022002313619361054B1B68054990
:10335000A1FB03139B09013B5361072313617047D2
:1033600004000020D34D621010B582B02A4B1A78A9
:10337000D2B20192FF221A701B78DBB28DF80330B3
:103380009DF8033003F05003244A1370244B0722A6
:103390001A6009E0224A1368013B13609DF803306C
:1033A0005B00DBB28DF803309DF8033013F0800F23
:1033B000F0D11B4B1B68032B08D04FF0500383F355
:1033C0001188BFF36F8FBFF34F8FFEE71B02144AC4
:1033D000136003F4E0631360019BDBB20E4A1370C9
:1033E0004FF0E023D3F8202D42F47002C3F8202DD3
:1033F000D3F8202D42F07042C3F8202DFFF7A0FF34
:103400000024084B1C60FFF7EBFE01F01BF8FFF7F0
:10341000C7FE204602B010BD00E400E0C81900203D
:10342000CC19002010000020EFF305830F2B0FD9DB
:10343000114A9B5CDBB2114A12789A4208D94FF0CC
:10344000500383F31188BFF36F8FBFF34F8FFEE7F5
:103450004FF0E023D3F80C3D03F4E063084A126810
:10346000934208D94FF0500383F31188BFF36F8F55
:10347000BFF34F8FFEE77047F0E300E0C81900206C
:10348000CC190020124A12F0070F1ED0D11D21F0D6
:103490000701C1F5005313440A460E48026000219B
:1034A00041601344083B23F007030B480360596055
:1034B0001960991A51601360084B1960084B196024
:1034C000084B4FF000421A6070474FF40053E4E796
:1034D000D4190020E0390020D0190020DC39002068
:1034E000D8390020D4390020154B1A461B68834276
:1034F000FBD3516802EB010C844509D0416800EB15
:10350000010C634509D00360904218D010607047E9
:103510004068014451601046F0E710B4094C24683B
:10352000A3420AD05B681944416013681B680360BA
:10353000904200D0106010BC70470460F8E77047FC
:10354000E0390020D019002070B5054600F03EFE9D
:10355000344B1B68A3B1344B1B681D424AD135B1B3
:10356000083515F0070F02D025F007050835002DA6
:1035700042D02E4B1B68AB424DD32D4A146804E059
:10358000FFF780FFE7E722461C466368AB4202D2A2
:103590002368002BF7D1234B1B68A3423DD016684C
:1035A00008362368136063685B1B102B10D9601901
:1035B00010F0070F08D04FF0500383F31188BFF3CA
:1035C0006F8FBFF34F8FFEE743606560FFF78CFF9F
:1035D000626816490B689B1A0B60164909688B4292
:1035E00001D214490B60104B1B6813436360002326
:1035F000236002E0002600E0002600F081FE16F0C5
:10360000070F0CD04FF0500383F31188BFF36F8F77
:10361000BFF34F8FFEE70026EFE70026EDE73046C9
:1036200070BD00BFD0190020D4390020D839002047
:10363000E0390020DC39002080B338B50446A0F121
:10364000080550F8043C164A1268134208D14FF09E
:10365000500383F31188BFF36F8FBFF34F8FFEE7E3
:1036600050F8081C41B14FF0500383F31188BFF3A9
:103670006F8FBFF34F8FFEE723EA020340F8043C4D
:1036800000F0A4FD54F8041C064A13680B441360B0
:103690002846FFF729FF00F033FE38BD704700BF12
:1036A000D4390020D839002010B50446FFF7D2FDE8
:1036B000A26BE36B9A4204D00024FFF7EDFD204695
:1036C00010BD0124F9E710B50446FFF7C3FDA36B55
:1036D00023B90124FFF7E0FD204610BD0024F9E7DF
:1036E00070B504461546866B026C5AB903681BB167
:1036F00000200136A66370BD406800F0CBFF0023B8
:103700006360F6E76DB98068FDF7B0FC226CA368D2
:103710001344A3606268934219D32368A3602846C8
:10372000E7E7C068FDF7A2FC226C5142E3689B1AF0
:10373000E3602268934202D263680B44E360022D87
:1037400001D00020D5E726B1013E0020D1E7284670
:10375000CFE70020CDE708B50346026C62B108460A
:10376000D9681144D960D3F804C0614501D3196800
:10377000D960D968FDF77AFC08BD38B50546FFF772
:1037800069FD95F8454064B201E0013C64B2002C4B
:103790000ADD6B6A43B105F1240000F0D1FE002878
:1037A000F3D000F061FFF0E7FF2385F84530FFF725
:1037B00073FDFFF74FFD95F8444064B201E0013C12
:1037C00064B2002C0ADD2B6943B105F1100000F052
:1037D000B7FE0028F3D000F047FFF0E7FF2385F89D
:1037E0004430FFF759FD38BD38B5E0B10D46044609
:1037F000FFF730FD2368E26B216C01FB0230606053
:103800000020A063A360013A02FB0133E360FF23C1
:1038100084F8443084F84530FDB9236963B9FFF773
:103820003BFD012038BD4FF0500383F31188BFF3F7
:103830006F8FBFF34F8FFEE704F1100000F080FEA2
:103840000028ECD04FF0E0234FF08052C3F8042D55
:10385000BFF34F8FBFF36F8FE1E704F11000FFF765
:1038600059FC04F12400FFF755FCD8E738B51D4694
:10387000049C0B4649B92460E0632364012120467F
:10388000FFF7B2FF84F84C5038BD2260F4E740B92E
:103890004FF0500383F31188BFF36F8FBFF34F8F47
:1038A000FEE710B584B01C46844653B192B189B985
:1038B0004FF0500383F31188BFF36F8FBFF34F8F27
:1038C000FEE74FF0500383F31188BFF36F8FBFF310
:1038D0004F8FFEE76AB150230393039B502B13D005
:1038E0004FF0500383F31188BFF36F8FBFF34F8FF7
:1038F000FEE70029EFD04FF0500383F31188BFF3A8
:103900006F8FBFF34F8FFEE7012384F8463000949A
:103910009DF818306046FFF7A9FF204604B010BD9F
:10392000F0B585B0019288B10F461D460446B1B18D
:10393000022D20D1E36B012B1DD04FF0500383F3F8
:103940001188BFF36F8FBFF34F8FFEE74FF0500327
:1039500083F31188BFF36F8FBFF34F8FFEE7036CC4
:10396000002BE5D04FF0500383F31188BFF36F8F26
:10397000BFF34F8FFEE700F07DFE064658B9019B6E
:10398000002B48D04FF0500383F31188BFF36F8FA3
:10399000BFF34F8FFEE700263DE02A46394620461A
:1039A000FFF79EFE636A7BB948B14FF0E0234FF00A
:1039B0008052C3F8042DBFF34F8FBFF36F8FFFF713
:1039C0006BFC012005B0F0BD04F1240000F0B8FD4F
:1039D0000028F4D04FF0E0234FF08052C3F8042DBC
:1039E000BFF34F8FBFF36F8FE9E7FFF755FC002060
:1039F000E8E702A800F0EAFD012619E0002384F8B8
:103A0000443021E0002384F8453023E02046FFF7CE
:103A1000B4FE00F075FCFFF71DFCA26BE36B9A424D
:103A2000BBD3022DB9D0019B002BDED0002EE0D0FD
:103A3000FFF732FC00F0CAFBFFF70CFC94F84420BF
:103A400052B2B2F1FF3FD9D094F8452052B2B2F150
:103A5000FF3FD7D0FFF720FC01A902A800F0C2FD6C
:103A6000D8B92046FFF720FE0028CFD0019904F1F5
:103A7000100000F031FD2046FFF77FFE00F040FC13
:103A80000028C8D14FF0E0234FF08052C3F8042D36
:103A9000BFF34F8FBFF36F8FBDE72046FFF76DFE7B
:103AA00000F02EFC00208DE72DE9F84390B10F4681
:103AB00016461C460546B1B1022C20D1EB6B012BFA
:103AC0001DD04FF0500383F31188BFF36F8FBFF306
:103AD0004F8FFEE74FF0500383F31188BFF36F8FD2
:103AE000BFF34F8FFEE7036C002BE5D04FF0500380
:103AF00083F31188BFF36F8FBFF34F8FFEE7FFF79C
:103B000093FCEFF311894FF0500383F31188BFF357
:103B10006F8FBFF34F8FAA6BEB6B9A4206D3022CC9
:103B200004D0002089F31188BDE8F88395F845801A
:103B30004FFA88F8224639462846FFF7D1FDB8F1FA
:103B4000FF3F06D008F101035BB285F84530012044
:103B5000E8E76B6A0BB90120E4E705F1240000F007
:103B6000EFFC18B126B101203060DBE70120D9E776
:103B70000120D7E7F0B585B0019290B10F46044619
:103B8000C1B100F077FD064600BB019B002B5ED063
:103B90004FF0500383F31188BFF36F8FBFF34F8F44
:103BA000FEE74FF0500383F31188BFF36F8FBFF32D
:103BB0004F8FFEE7036C002BE3D04FF0500383F3ED
:103BC0001188BFF36F8FBFF34F8FFEE700263EE0F3
:103BD00039462046FFF7BFFD013DA563236923B9A0
:103BE000FFF75AFB012005B0F0BD04F1100000F012
:103BF000A7FC0028F4D04FF0E0234FF08052C3F828
:103C0000042DBFF34F8FBFF36F8FE9E7FFF744FB3E
:103C10000020E8E702A800F0D9FC012621E00023FB
:103C200084F8443029E0002384F845302BE0204616
:103C3000FFF7A3FD00F064FB09E02046FFF79DFDC0
:103C400000F05EFB2046FFF73EFD00283FD1FFF766
:103C500001FBA56B002DBBD1019B002BD6D0002E04
:103C6000D8D0FFF719FB00F0B1FAFFF7F3FA94F898
:103C700044305BB2B3F1FF3FD1D094F845305BB232
:103C8000B3F1FF3FCFD0FFF707FB01A902A800F077
:103C9000A9FC0028D1D12046FFF715FD0028C6D089
:103CA000019904F1240000F017FC2046FFF765FDA0
:103CB00000F026FB0028CAD14FF0E0234FF08052DD
:103CC000C3F8042DBFF34F8FBFF36F8FBFE7002002
:103CD00089E700000023072B0CD8074A52F833204D
:103CE0000AB10133F7E7044A42F8331002EBC30389
:103CF00058607047704700BFE839002070B504462F
:103D00000D461646FFF7A6FA94F844305BB2B3F1BD
:103D1000FF3F0DD094F845305BB2B3F1FF3F0BD0BD
:103D2000FFF7BAFAA36B5BB12046FFF726FD70BD23
:103D3000002384F84430EDE7002384F84530EFE7B2
:103D40003246294604F1240000F0DEFBECE70000D7
:103D5000084B1B681B6823B9074B4FF0FF321A60F2
:103D60007047044B1B68DB68DB685A68024B1A60BB
:103D7000704700BF2C3A0020D83E00202DE9F047C4
:103D800080460D4617469946089EDDF824A00A9CF9
:103D90009200A521206B01F085FA236B07F1804288
:103DA000013A03EB820727F007074FF0000CBCF144
:103DB0000F0F0BD815F80C2004EB0C0383F83420FC
:103DC00015F80C3013B10CF1010CF0E7002384F866
:103DD0004330372E00D93726E662E6640025256594
:103DE000201DFFF7A2F904F11800FFF79EF92461E6
:103DF000C6F13806A6616462656584F858504A4683
:103E000041463846FFF7FCF92060BAF1000F01D0B7
:103E1000CAF80040BDE8F08738B5002407E004EB9D
:103E2000840293000E481844FFF774F90134372CCC
:103E3000F5D90C4D2846FFF76DF90B4C2046FFF7DE
:103E400069F90A48FFF766F90948FFF763F9094875
:103E5000FFF760F9084B1D60084B1C6038BD00BFC0
:103E6000343A0020AC3E0020C03E0020E03E00205E
:103E70000C3F0020F83E00202C3A0020303A002071
:103E800010B50446FFF7E6F9224A136801331360C0
:103E9000214B1B685BB1214B1B686BB91E4B1B6828
:103EA000DA6AE36A9A4207D81B4B1C6004E01A4B9B
:103EB0001C601368012B29D0194A13680133136061
:103EC0006364E06A174B1B68984201D9154B186070
:103ED00000EB8000211D144B03EB8000FFF728F955
:103EE000FFF7DAF90D4B1B687BB10B4B1B68DA6AE5
:103EF000E36A9A4209D24FF0E0234FF08052C3F8B0
:103F0000042DBFF34F8FBFF36F8F10BDFFF784FFFA
:103F1000D2E700BF943E0020283A0020F43E002063
:103F2000A43E0020A83E0020343A002010B50446EC
:103F300090F8593063B1012B11D0022B0ED04FF005
:103F4000500383F31188BFF36F8FBFF34F8FFEE7EA
:103F5000006BFFF771FB2046FFF76EFB10BDFFF70C
:103F60006BFBFBE70F4B1B68D3B110B5FFF772F982
:103F70000D4BDB68DC68201DFFF7FEF80B4A136869
:103F8000013B1360074A1368013B1360FFF784F994
:103F90002046FFF7CBFF034B1B68002BE6D110BD7B
:103FA000704700BF983E00200C3F0020943E002048
:103FB00008B5FFF7D7FF074B1B68012BF9D94FF066
:103FC000E0234FF08052C3F8042DBFF34F8FBFF3AF
:103FD0006F8FEEE7343A002070B504460D46174B5C
:103FE0001E68174B18680430FFF7C6F8B4F1FF3F9E
:103FF0000DD03444124B1B685C60A64210D9114BA3
:1040000018680F4B19680431FFF79DF870BD002D3B
:10401000EFD00B4B196804310B48FFF789F8F5E72F
:104020000A4B1868064B19680431FFF78CF8084BE7
:104030001B68A342EAD9064B1C60E7E7203F00203B
:10404000283A0020303A0020F83E00202C3A002088
:10405000D83E002030B587B00B9C7CB10C9DB5B12B
:104060005C250495049D5C2D1AD04FF0500383F31A
:104070001188BFF36F8FBFF34F8FFEE74FF05003F0
:1040800083F31188BFF36F8FBFF34F8FFEE74FF0BD
:10409000500383F31188BFF36F8FBFF34F8FFEE799
:1040A0000C9D2C63022485F859400024039402954A
:1040B00005AC01940A9C0094FFF760FE0C98FFF792
:1040C000DFFE059807B030BD2DE9F04385B0074607
:1040D000884614461E469000FFF736FA00B3814624
:1040E0005C20FFF731FA0546B0B1C0F83090E5B179
:1040F000002385F85930039302950D9B01930C9B87
:1041000000933346224641463846FFF737FE28469D
:10411000FFF7B6FE012005E04846FFF78DFAE6E717
:104120004FF0FF3005B0BDE8F0834FF0FF30F9E706
:1041300010B588B000240594069407AA06A905A81E
:10414000FEF7D0FF059B0293069B01930094234644
:10415000079A18491848FFF77DFF184B186040B1BF
:1041600000F04CFB012806D0B0F1FF3F18D008B09A
:1041700010BD0020F6E74FF0500383F31188BFF322
:104180006F8FBFF34F8F0E4B4FF0FF321A600D4B06
:1041900001221A600C4B00221A60FFF7E5F8E6E7EF
:1041A0004FF0500383F31188BFF36F8FBFF34F8F2E
:1041B000FEE700BF28550008B13F0008D43E0020AC
:1041C000D83E0020F43E0020203F0020024A136821
:1041D00001331360704700BFA03E0020014B1868F8
:1041E000704700BF203F0020F8B53A4B1B68002BFA
:1041F00064D1394B1D6801351D60C5B9374B1B684B
:104200001B6843B14FF0500383F31188BFF36F8FE6
:10421000BFF34F8FFEE7314A1168314B18681060C9
:104220001960304A136801331360FFF791FD2E4B7C
:104230001B68AB4238D900272C4B1B68DB6A03EBA9
:1042400083039A002A4B9B58012B3CD901273AE063
:104250000127224B1B681B6843B3204B1B68DB689C
:10426000DC6863689D4226D3261D3046FEF784FF36
:10427000A36A1BB104F11800FEF77EFFE36A1D4A32
:104280001268934201D91B4A136003EB83039A001F
:10429000314617481044FEF74BFFE26A134B1B6888
:1042A000DB6A9A42D4D2D4E70027D2E70E4B4FF014
:1042B000FF321A60C0E70C4A1360BDE70E4A13686C
:1042C0000133136000270D4B1B6803B101273846EB
:1042D000F8BD00BFA03E0020203F00202C3A002067
:1042E000303A0020DC3E0020D83E0020283A002052
:1042F000343A0020A83E00209C3E0020243F0020AD
:1043000038B5354B1B6843B94FF0500383F3118820
:10431000BFF36F8FBFF34F8FFEE7FEF79BFF2E4B70
:104320001A68013A1A601B68002B4FD12B4B1B688F
:104330000BB900244BE00024294B1B681BB3284B0E
:10434000DB68DC6804F11800FEF716FF251D28461F
:10435000FEF712FFE06A234B1B68984201D9214BFC
:10436000186000EB800029461F4B03EB8000FEF72E
:10437000DFFEE26A1D4B1B68DB6A9A42DCD31C4BF2
:1043800001221A60D8E70CB1FFF7E2FC194B1C6858
:1043900084B9174B1C68D4B14FF0E0234FF0805222
:1043A000C3F8042DBFF34F8FBFF36F8F01240EE0CE
:1043B000013C07D0FFF718FF0028F9D00C4B012271
:1043C0001A60F5E70B4B00221A60E2E70024FEF7C3
:1043D00063FF204638BD00BFA03E0020943E002071
:1043E000E03E0020A83E0020343A0020283A002079
:1043F000243F00209C3E002010B5A8B10446104B7D
:104400001B6843B14FF0500383F31188BFF36F8FE4
:10441000BFF34F8FFEE7FFF7D9FE00212046FFF7DD
:10442000DBFDFFF76DFF48B94FF0E0234FF08052FE
:10443000C3F8042DBFF34F8FBFF36F8F10BD00BFC4
:10444000A03E00201F4B1B681BB11F4B01221A60AE
:1044500070471D4B00221A601C4B1B6803EB830145
:104460008A001B498A585AB90BB1013BF6E74FF055
:10447000500383F31188BFF36F8FBFF34F8FFEE7B5
:1044800003EB830082000A4450684068506003EBED
:10449000830C4FEA8C020832114488420BD003EBA4
:1044A000830291000A4A0A445268D168094A11609D
:1044B000064A13607047406862469100044A0A4405
:1044C0005060ECE7A03E0020243F0020A83E0020E2
:1044D000343A0020283A002058B110B50C46094A59
:1044E00011681831FEF72FFE01212046FFF774FDF9
:1044F00010BD4FF0500383F31188BFF36F8FBFF3EC
:104500004F8FFEE7283A002038B570B10D461446AB
:104510000A4A11681831FEF70BFE0CB14FF0FF3557
:1045200021462846FFF758FD38BD4FF0500383F36E
:104530001188BFF36F8FBFF34F8FFEE7283A00203B
:1045400038B5C368DC6824B304F118052846FEF7C3
:1045500013FE184B1B682BBB251D2846FEF70CFECF
:10456000E06A154B1B68984201D9134B186000EBA9
:1045700080002946114B03EB8000FEF7D9FDE26A6B
:104580000F4B1B68DB6A9A4211D901200D4B186052
:1045900038BD4FF0500383F31188BFF36F8FBFF323
:1045A0004F8FFEE729460848FEF7C2FDE7E70020E7
:1045B000EEE700BFA03E0020A83E0020343A0020D5
:1045C000283A0020243F0020E03E0020034B1B68D7
:1045D0000360034B1B684360704700BFDC3E002054
:1045E000203F0020D8B170B50C46054601B3FEF758
:1045F00031FE1B4B19686B68C81A2268B2F1FF3F85
:1046000027D0184E3668D5F800C0B44501D08B428B
:1046100024D9824215D80023236001241AE04FF0E8
:10462000500383F31188BFF36F8FBFF34F8FFEE703
:104630004FF0500383F31188BFF36F8FBFF34F8F99
:10464000FEE75B1A134423602846FFF7BFFF0024F0
:1046500000E00024FEF720FE204670BD0124F9E7AB
:10466000203F0020DC3E0020014B01221A607047F1
:10467000243F0020054B1B6833B1054B1B680BB171
:10468000002070470220704701207047F43E002050
:10469000A03E002000283BD038B504461E4B1B68C6
:1046A000834208D04FF0500383F31188BFF36F8F1C
:1046B000BFF34F8FFEE7036D43B94FF0500383F311
:1046C0001188BFF36F8FBFF34F8FFEE7013B036588
:1046D000C16AC26C91421DD00BB1002038BD051DCE
:1046E0002846FEF749FDE06CE062C0F13803A361A3
:1046F0000A4B1B68984201D9084B186000EB8000F8
:104700002946074B03EB8000FEF712FD0120E5E789
:10471000002070470020E1E7283A0020A83E002052
:10472000343A0020064B1A681368B3FA83F35B0926
:10473000036013B9D368186870470020704700BF42
:10474000283F002008B54160006191420CD8D21A80
:1047500083699A4201D3012008BD011D094B1868E5
:10476000FEF7F1FC0020F7E79A4201D2994206D207
:10477000011D054B1868FEF7E6FC0020ECE7012060
:10478000EAE700BF2C3F0020283F002030B583B06F
:10479000FEF760FD114B1B681BB1FEF77DFD03B0FA
:1047A00030BD0F4D2846FEF7B5FC0E4C2046FEF7F7
:1047B000B1FC0D4B1D600D4B1C60002300930C4B96
:1047C0000C4A10210A20FFF762F8044B18600028F9
:1047D000E3D00949FFF77EFADFE700BF4C40002035
:1047E000D03F0020E43F0020283F00202C3F002045
:1047F000FC3F0020303F00203055000810B588B045
:10480000FFF7C4FF124B1B68CBB10024059406943C
:1048100007AA06A905A8FEF771FC059B0293069B53
:104820000193022300932346079A0A490A48FFF797
:1048300011FC0A4B186010B1012008B010BD4FF0F8
:10484000500383F31188BFF36F8FBFF34F8FFEE7E1
:104850004C400020385500083D4B000850400020D7
:10486000B8B19C4603461848006858B300B585B0F7
:1048700000910192029305291CDCFFF7FBFE022840
:1048800010D000231A4669460F480068FFF748F821
:1048900015E04FF0500383F31188BFF36F8FBFF320
:1048A0004F8FFEE70023069A694607480068FFF726
:1048B00037F804E0002362466946FFF7F5F805B0D3
:1048C0005DF804FB002070474C40002070B582B0BA
:1048D0001A4B1B681A6852B3DB681E68DC68251D1A
:1048E0002846FEF749FC636A20469847E369012B96
:1048F000EED1A36933449E4207D263602461294606
:104900000E4B1868FEF71FFCE2E7002100910B46F2
:1049100032462046FFF7A4FF0028D9D14FF05003BC
:1049200083F31188BFF36F8FBFF34F8FFEE7044A05
:10493000106802490860136002B070BD283F002073
:104940002C3F002038B50546FFF748FC0446074BCE
:104950001B68834205D800232B60044B1C60204653
:1049600038BDFFF7B3FF01232B60F6E7F83F0020C7
:1049700070B582B006460D4614490968C968CC680E
:10498000201DFEF7F9FBE169012904D0636A204686
:10499000984702B070BDA16933462A46314420468B
:1049A000FFF7D0FE0028F1D0002100910B463246DF
:1049B0002046FFF755FF0028E8D14FF0500383F35E
:1049C0001188BFF36F8FBFF34F8FFEE7283F0020A2
:1049D00070B582B006460C46FFF7F8FB01A8FFF75A
:1049E000B1FF019B2BBB05460CB9B0421AD22CB1CA
:1049F000124B1B681C68B4FA84F464092246711BCC
:104A00000F4B1868FFF77AF9FFF77AFC98B94FF067
:104A1000E0234FF08052C3F8042DBFF34F8FBFF354
:104A20006F8F08E0FFF76CFC29463046FFF7A0FFC8
:104A300001E0FFF765FC02B070BD00BF2C3F002015
:104A40004C40002010B588B002E0049B002B0FDA28
:104A5000002204A9384B1868FFF78CF8002869D0A9
:104A6000049B002BF1DA07990698059B9847ECE721
:104A7000069C636913B1201DFEF77EFB03A8FFF7B8
:104A800061FF049B092BE3D801A252F823F000BF79
:104A9000B94A0008B94A0008B94A0008514A000852
:104AA000FF4A0008254B0008B94A0008B94A000827
:104AB000514A0008FF4A0008059BA16902461944B3
:104AC0002046FFF73FFE0028C2D0636A2046984781
:104AD000E369012BBCD1A269002100910B46059826
:104AE00002442046FFF7BCFE0028B1D14FF050032E
:104AF00083F31188BFF36F8FBFF34F8FFEE70599E4
:104B0000A16131B10346024601442046FFF71AFE77
:104B10009EE74FF0500383F31188BFF36F8FBFF30D
:104B20004F8FFEE794F82C30002B91D12046FEF7F2
:104B300083FD8DE708B010BD4C40002000B583B068
:104B400001A8FFF7EFFD0199FFF742FFFFF77AFF9A
:104B5000F6E74FF4806202600022C0F80424C0F837
:104B60000824C0F80C24704770470346D0F8082486
:104B7000511CC0F8081402441079D3F80424013AF7
:104B8000C3F80424D3F808141A68914202D300220F
:104B9000C3F808247047D0F8042403689A4201D06F
:104BA000002070470120704738B504460D46FFF7D6
:104BB000F2FF98B9D4F80C345A1CC4F80C242344DE
:104BC0001D71D4F804340133C4F80434D4F80C242F
:104BD00023689A4202D30023C4F80C3438BDD0F8BD
:104BE00004340BB900207047012070477047002340
:104BF000437007E0437811F8012B534003449B783E
:104C00004370624602F1FF3C002AF3D170474078BE
:104C1000704700B586468C4600201346013A9BB18A
:104C20001CF8013B5840082303E04000C0B2013BA0
:104C3000DBB2002BF1D010F0800FF6D09EF90010FF
:104C400081EA4000C0B2F2E75DF804FB30B583B002
:104C500005460023019309E0012201A92846FFF738
:104C6000D8FF2C44A070019B01330193019CFF2CC1
:104C7000F2DD03B030BD10B504460170FFF7E6FF6A
:104C8000204610BD10B5044600F0BFF9002384F89B
:104C90002432FF2384F825320323C4F82832142356
:104CA000C4F82C32204610BD10B5044600F0BBF904
:104CB000204610BD2DE9F04104460E46174600F58A
:104CC0000C784FF496720021404600F0EBFA94F80D
:104CD0002422531CDBB284F8243284F830220025CD
:104CE00084F8315284F832723A46314604F2332065
:104CF000FCF7BCF9FA1C4146204600F0B5F900E08B
:104D00000135D4F8283203EB4303B5EB430F1CDA2B
:104D100004F55776D4F82C324FF49672314620467B
:104D200000F0EEF902460028EAD094F8301294F828
:104D30005C339942E4D194F85D33012BE0D13146E4
:104D4000204600F091F9384600E00020BDE8F081EF
:104D5000F8B505460F461646002400E00134D5F8A4
:104D60002832A34207DD324639462846FFF7A2FF24
:104D700084460028F2D06046F8BD2DE9F843044689
:104D80000E461546994600F557774FF496784246F9
:104D90000021384600F086FA089B424639462046F4
:104DA00000F0AEF900284BD094F85E33AB4246D801
:104DB00094F85C2394F82532DBB29A4217D084F839
:104DC00025220023C9F8003094F85D33012B39D037
:104DD00094F85C3384F83032012384F831320322B2
:104DE00004F50C71204600F03FF9002505E0012391
:104DF000C9F80030002023E00135D4F82832AB4256
:104E000022DDD4F82C32202204F59161204600F0F6
:104E100077F90028F0D094F8302294F888349A4238
:104E2000EAD194F88934012BE6D194F85E2304F298
:104E30005F313046FCF71AF994F85E0300E0002079
:104E4000BDE8F8830020FBE70020F9E72DE9F041F9
:104E500084B080460F4616461D46002303930095F6
:104E600003AB324639464046FFF787FF039C002CD0
:104E7000F5D104B0BDE8F0814FF0010C80F80CC012
:104E80000160C0F810247047704708B5014651F81A
:104E90000D0B4FF40072FEF711F808BD70B5044613
:104EA00016460A6803681B689A4200D070BD08461F
:104EB000237BD3B1002525730B686FF020021A60A5
:104EC0000B686FF008021A604FF4007204F20D21B3
:104ED000FDF7F4FF06E06319597BD4F81004FFF7DF
:104EE00063FE0135AE42F6DCE0E7012323730B6875
:104EF0006FF020021A600B686FF008021A604FF41E
:104F0000007204F10D01FDF7D9FF002507E06319D8
:104F100093F80D12D4F81004FFF746FE0135AE42A7
:104F2000F5DCC3E708B50A6803681B689A4200D03D
:104F300008BD4268002AFBD0888CCB8C9BB2C01A7B
:104F40009047F5E708B50A6803681B689A4200D0E5
:104F500008BD8268002AFBD0888DCB8D9BB2C01A19
:104F60009047F5E738B50B6802681268934200D0A5
:104F700038BD05460C466FF008021A608A8DCB8D4D
:104F80009BB2D21A92B2FFF789FF01232B734FF421
:104F9000007205F10D012046FDF790FFE8E710B51E
:104FA000144692B20068FDF783FC204610BD10B590
:104FB000144640F6B833FFF7F2FF204610BD2DE946
:104FC000F8430546894614461F46FCF795FB0646FE
:104FD0004FF0000804E0FCF78FFB801BB84211D8AB
:104FE0002346013C73B1D5F81004FFF7F8FD002803
:104FF000F1D0D5F81004FFF7B8FD09F8080008F162
:105000000108E8E74046BDE8F88330B40024846036
:10501000C46004614FF480754561C0F820420160AE
:10502000426030BC70477047D0F82032052B01D069
:10503000002070470120704770B504461546AA232A
:105040000376437682761B30FCF710F8EE1C32466E
:1050500004F118016068FFF7CAFD6068FFF7D7FD2B
:1050600034442076281D70BDF8B504460D4616461A
:1050700000F118074FF482720021384600F012F94F
:10508000324629462046FFF7D7FF054602463946F5
:105090002068FFF78CFFA0682844A060F8BD2DE9C8
:1050A000F0411E1FB6F5807F03D900263046BDE8CB
:1050B000F0810546884617465C1E224600F58E7133
:1050C0004068FFF794FD6868FFF7A1FD2B1993F87E
:1050D0001C31834204D02B6901332B610026E5E7A4
:1050E000BE4201D90026E1E7324605F21F114046D3
:1050F000FBF7BCFF2B19002283F81C21D6E7000028
:105100002DE9F84F06468A4693461F4600F58E78ED
:105110004FF482720021404600F0C4F8FCF7ECFA2C
:1051200081460024C6F82042254633E03B46012252
:1051300008EB04013068FFF742FF331993F81C3184
:10514000AA2B01D0002425E00123C6F820321C44FC
:1051500020E03B46012208EB04013068FFF72FFFF7
:10516000331993F81C31AA2B01D0002412E002233A
:10517000C6F8203201340DE03B46012208EB040161
:105180003068FFF71CFF331993F81C510323C6F84E
:10519000203201343046FFF747FF90BBFCF7ACFAF2
:1051A000A0EB0900B84237D8D6F82032042BF1D84A
:1051B00001A252F823F000BF2D51000853510008FE
:1051C00079510008CD510008EB5100084DB13B4624
:1051D0002A4608EB04013068FFF7F1FE04442D1A5B
:1051E000F4E70423C6F82032D4E73B46012208EB5B
:1051F00004013068FFF7E3FE0523C6F820320134CE
:10520000C8E7F3682344F36023465A4651463046C4
:10521000FFF745FFBDE8F88F0020FBE70B4601468E
:10522000184600F009B800BF062008B500F08CF859
:105230000120FCF78BF900BF8C4600B5864613466B
:105240007146022062465DF804EB00F0C1B800BF71
:10525000014B1868704700BF1400002070B50D4E58
:105260000D4D761BB61006D0002455F8043B0134D2
:105270009847A642F9D1094E094D00F019F9761B5D
:10528000B61006D0002455F8043B01349847A642D6
:10529000F9D170BD40570008405700084C5700082E
:1052A00040570008830730B548D0541E002A3FD02D
:1052B0000346CAB201E0013C3AD303F8012B9D0733
:1052C000F9D1032C2DD9CDB245EA05250F2C45EA9D
:1052D000054536D9A4F1100222F00F0C03F1200E7F
:1052E000E6444FEA121C03F1100242E9045542E978
:1052F000025510327245F8D10CF1010214F00C0F76
:1053000003EB021204F00F0C13D0ACF1040323F0F2
:1053100003030433134442F8045B9342FBD10CF0C3
:1053200003042CB1CAB21C4403F8012B9C42FBD1EC
:1053300030BD64461346002CF4D1F9E70346144609
:10534000BFE71A46A446E0E738B5154B1F281D688D
:1053500020D8D5F8DC22044662B152F820304BB197
:10536000012B15D0591C0FD0002542F8205098472A
:10537000284638BD284600F029F82246014628462E
:10538000BDE8384000F00EB8162301202B6038BD70
:10539000002038BD16234FF0FF302B6038BD00BF12
:1053A0001400002070B50026074D0446084611463B
:1053B0002E60FCF7C3F8431C00D070BD2B68002B97
:1053C000FBD0236070BD00BF58400020FCF7B4B88C
:1053D0002DE9F047DFF87CA00646DAF80000984691
:1053E0000F46914600F060F81B4B1B68D3F848410C
:1053F00024B365681F2D26DC5EB96B1C0235DAF814
:105400000000636044F8257000F050F80020BDE80B
:10541000F087012304EB8501C1F88890D4F8882136
:10542000AB401A43022EC4F88821C1F80881E4D1A8
:10543000D4F88C211343C4F88C31DEE703F5A6744D
:10544000C3F84841D5E7DAF8000000F02FF84FF034
:10545000FF30DCE74004002040550008024B13B148
:10546000024800F005B87047000000007D540008B5
:10547000002301461A461846FFF7AABF38B5084B65
:10548000084D5B1B9C1007D0043B1D44013C55F8A4
:1054900004399847002CF9D1BDE8384000F00EB827
:1054A000505700084C570008704700BF704700BFB6
:1054B000F8B500BFF8BC08BC9E467047F8B500BF01
:0854C000F8BC08BC9E467047D1
:1054C800726563764D6173746572436D64000000A4
:1054D800C8540008000000000000000000000000A0
:1054E800000000000010000018000000000000008C
:1054F800000000000000000000000000010203049A
:10550800060708090000000001020304020304055D
:10551800060708090A0B0C0D0E0F101001020000F7
:1055280049444C4500000000546D725100000000D1
:0C553800546D72205376630018000020B0
:1055440008B10181B0B000840000000008B10181FD
:10555400B0B000840000000008B10181B0B0008444
:105564000000000008B10181B0B000840000000018
:1055740008B10181B0B000840000000008B10181CD
:10558400B0B000840000000008B10181B0B0008414
:105594000000000008B10181B0B0008400000000E8
:0C55A40008B10181B0B0008400000000DC
:1055B000A0ABFF7F0100000034ACFF7FB0A90280E8
:1055C000CCACFF7FB0B0A8801CADFF7F0100000015
:1055D00028ADFF7FB0B0AA8060ADFF7FAE71B28012
:1055E00030AEFF7F010000002CAEFF7FAB3F388064
:1055F0008CAEFF7F0100000098AEFF7FB0B0AA80A4
:10560000D4AEFF7F0100000084AFFF7FAA0DB280FF
:10561000FCAFFF7FB0AF08809CB2FF7F01000000AD
:10562000A0B2FF7FAD3F02800CB5FF7F01000000FC
:10563000E8B6FF7F00840480FCB6FF7F0100000015
:10564000F8B6FF7FB0AD0480D4B9FF7F008404803A
:10565000FCB9FF7F44FFFF7F00BAFF7F48FFFF7F59
:105660000CBAFF7F0100000080BBFF7FD8FEFF7FE8
:1056700088BBFF7F00841080A4BBFF7FD4FEFF7F28
:10568000B0BBFF7FD8FEFF7FB8BBFF7FB0B0A88064
:10569000D4BBFF7FD4FEFF7FDCBBFF7F0100000097
:1056A000E4F5FF7FB0B0A88000F6FF7F01000000A6
:1056B00004F6FF7FB0B0AC8098F6FF7FAB08B180F6
:1056C000BAF6FF7FAD08B18084F7FF7FB0AC0380EE
:1056D000A8F7FF7F01000000B2F7FF7F98FEFF7F71
:1056E000BCF7FF7FB0B0AA803CF8FF7F94FEFF7F3D
:1056F00054F8FF7F98FEFF7F6CF8FF7FA908B18008
:105700009EF8FF7FB0B0A880B6F8FF7FAD08B180EB
:10571000FAF8FF7F0100000020F9FF7FB0B0AA80F7
:1057200048F9FF7FAB08B18076F9FF7FB0B0AC805D
:10573000D0F9FF7FAF08B180E4FAFF7F01000000DD
:0C5740005D5400083501000875120008D7
:04574C00110100083F
:10575000000000000024F400010000001000000020
:10576000AAAAAAAA18000020000000000403002032
:105770006C030020D40300200000000000000000A3
:105780000000000000000000000000000000000019
:105790000000000000000000000000000000000009
:1057A00000000000000000000000000000000000F9
:1057B00000000000000000000000000000000000E9
:1057C00000000000000000000000000000000000D9
:1057D00000000000000000000000000000000000C9
:1057E00000000000000000000000000000000000B9
:1057F00000000000000000000000000000000000A9
:105800000000000000000000000000000000000098
:1058100001000000000000000E33CDAB34126DE635
:10582000ECDE05000B00000000000000000000009E
:105830000000000000000000000000000000000068
:105840000000000000000000000000000000000058
:105850000000000000000000000000000000000048
:105860000000000000000000000000000000000038
:045B9000544000205D
:040000050800167168
:00000001FF
