:020000040800F2
:10000000005000203D160008D1140008D514000847
:10001000D9140008DD140008E114000800000000F5
:10002000000000000000000000000000B1300008E7
:10003000E514000800000000413100088531000887
:100040008516000885160008851600088516000824
:100050008516000885160008851600088516000814
:100060008516000885160008851600088516000804
:10007000851600088516000885160008E914000892
:1000800085160008851600088516000885160008E4
:1000900085160008851600088516000885160008D4
:1000A00085160008851600088516000885160008C4
:1000B0008516000885160008F51400088516000846
:1000C00085160008851600088516000885160008A4
:1000D0008516000801150008851600088516000819
:1000E0008516000885160008851600080000000027
:1000F0000000000000000000000000000000000000
:0C01000000000000000000005FF808F1A3
:1001100010B5054C237833B9044B13B10448AFF341
:1001200000800123237010BD48040020000000005F
:10013000E856000808B5034B1BB103490348AFF369
:10014000008008BD000000004C040020E8560008B4
:1001500003685A004CBF43F0004323F000431844A7
:10016000704700BF2DE9F84339B34F1E04461546CA
:100170003E464FF0000808EB060101EBD171491033
:1001800004EBC1094846FFF7E3FF0346C800083007
:100190008F4220440BD0AB420BD8FFF7D9FF013878
:1001A000A84201F10108E6D34846BDE8F883AB4216
:1001B000FAD9884501D04E1EDDE74FF000094846C8
:1001C000BDE8F883012807D0022807D0044B002897
:1001D0000CBF18460020704702487047024870471D
:1001E000B5080008B9080008BD08000830B5244B60
:1001F000044683B08D1E3BB3284601A9AFF30080AF
:10020000E8B101992A46FFF7ADFF0146B8B1FFF703
:100210009FFF4B68A064012B2ED0002B27DB081D0D
:10022000FFF796FF0023C4E913030368002B12DBDA
:10023000FFF78EFF03460020236103B030BD00238B
:100240000920236103B030BD0E4B0F491846C91A6F
:10025000C9100191D6E7C3F30360FFF7B3FF00288D
:10026000034614BF00200920236103B030BD0123E1
:10027000081DC4E91303D8E7002305202361DCE748
:10028000000000008C570008CC580008036810B527
:10029000DA07044606D49B0700F1480009D500F0B0
:1002A0005DFC2368590709D51A070ED5DB0613D55F
:1002B00010BD00F04BFC23685907F5D404F1D000C1
:1002C00000F054FC23681A07F0D404F5A87000F07D
:1002D00055FC2368DB06EBD404F5E870BDE810405C
:1002E00000F090BC092070470346006800B1184434
:1002F000704700BF704700BF70B504460E462046E9
:10030000316CFFF773FF054698B9D6F840C0324606
:10031000214601202369C4F814C098470828EED06C
:10032000072806D12846316CFFF7E4FF301D00F0A6
:1003300001FC05F095F800BF2DE9F0474FF0000AE9
:10034000ADF5727D0DF10C0E01F1040CC768D0F80B
:10035000188006461446BCE80F00AEE80F00BCE863
:100360000F00AEE80F00BCE80F00AEE80F009CE8FD
:100370000F0002AD8EE80F00C5F800A021E02B6C45
:100380004FF4F072294673617AA800F06FFE31468F
:10039000504633697AAA9847889C82466C643346F3
:1003A000324649460120CDE90058B8470446F0B925
:1003B0004FF4F07228467AA900F058FEBAF1080FFF
:1003C0001BD13046296CFFF711FF04F109095FFAD0
:1003D00089FA04460028D2D0A96B334669643246B4
:1003E0000120CDE900584AF01001B84700B10924B6
:1003F00020460DF5727DBDE8F087BAF1070FF6D102
:100400002046296CFFF776FF03A800F093FB00BF9E
:10041000406C7047F0B54FF0FF37CB6BF9B00B6411
:1004200001AC01F1040C0E460546BCE80F000FC4F8
:10043000BCE80F000FC4BCE80F000FC49CE80F001D
:1004400084E80F00009706E06A4629462B69984722
:100450000828044608D128461099FFF7C7FE00284F
:10046000F2D0092079B0F0BD6846FFF70FFF062CE7
:10047000F7D131462846FFF73FFF00BF10B41446BE
:100480008461DC6BC16000221C64194610BC53E718
:1004900070B54369C6680B64AEB90A460369044681
:1004A0000D46014602209847072805D008280FD19D
:1004B00029462046FFF720FF3046296CFFF71AFF38
:1004C000281D00F037FB0122FFF736FF04F0C8FFBC
:1004D00004F0C6FFC2682AB1D1F83CC00022C1F8BE
:1004E00040C029E796E700BF704700BF8368014618
:1004F0000BB1012018477047012912D009D873B9F0
:100500000F2A0CD800EB820042681846009B1A6044
:1005100070470339012994BF01200220704702204F
:1005200070470846704700BF002300B585B00A46F3
:1005300003A900911946FFF7DFFF039805B05DF8A6
:1005400004FB00BF012912D009D873B90F2A0CD8B7
:10055000009900EB82020968184651607047033920
:10056000012994BF012002207047022070470846ED
:10057000704700BF002310B584B003AC0392009411
:100580000A461946FFF7DEFF04B010BD70B54FF004
:10059000FF36D36BADF50E7D13640DF15C0E02F1E9
:1005A000040C05460C46BCE80F00AEE80F00BCE8A2
:1005B0000F00AEE80F00BCE80F00AEE80F009CE8AB
:1005C0000F008EE80F00169612E00C2116A86A465E
:1005D000FFF7D0FF214616A8A84778B9694608203A
:1005E000049B16AA98470528064608D0092805D076
:1005F00068462699FFF7FAFD0028E6D0092616A8D6
:10060000FFF744FE30460DF50E7D70BD2DE9F04F2D
:100610001E46CC6C89B054F8043B0D46174600F0DA
:1006200003080694002E79D002228DF81C201A0CA3
:100630008DF81D201B04D2B2059304EB82042B6DB0
:10064000B8F1020F08BFAC6B13F001030CD03846B1
:1006500005A900F071FB18B9082009B0BDE8F08FBA
:10066000092009B0BDE8F08FD4F800A0BAF1000F5E
:10067000EDD0019300F008030293022E4AD0B4F8A3
:1006800000A0B4F802900434AA6C0F21384629F077
:10069000010B9344FFF748FF834539D82AF0010244
:1006A0005A44824294BF002001204FEA490303F0DC
:1006B00002030AF0010A43EA0A03012B49D0022B84
:1006C00032D0002BCCD1B8F1000F02D0002840F07E
:1006D000CE800434D4F800A0BAF1000FCDD1384652
:1006E00005A900F029FB0028BAD1019B002BB3D04B
:1006F0000F213846FFF718FF0E2102463846FFF754
:1007000039FF38460F216A4AFFF734FF0720A8E770
:100710000020CAE7D4F804900834B5E71B0205931B
:100720000323ADF81C308AE7236823F0004BB8F1AF
:10073000000F45D128B1029A002A5CD0BBF1000F0E
:1007400074D0002B00DA04340BF1010B04EB8B04A2
:10075000C0E7B8F1000F19D1B0B163682268991CE5
:100760004FEAD2723FF47CAF05F158010133049196
:1007700000F09180201DFFF7B7FD04AB014628462D
:10078000AFF3008000285CD10834A3E70D21384680
:10079000D5F82090FFF7C8FE8145F5D1AB6A9C42A1
:1007A000F2D12046FFF7D4FC0F2102463846FFF76E
:1007B000E1FE38462A460021FFF7DCFE072050E71D
:1007C0000D213846D5F82090FFF7AEFE814501D0C7
:1007D0002368B6E7AB6A9C42FAD104230022C5E93C
:1007E0000B23E318C5F828B06B632368002B5ADB92
:1007F00001230193A8E705F15803CDF80C80914639
:10080000B04604F1040A1E460EE050460496FFF777
:100810006BFD0022014604AB284609F101090AF1EB
:10082000040AAFF30080E8B9D945EED10D2138466E
:10083000FFF77AFE0346049A0620C5E909242B62D5
:100840000FE781460D213846FFF76EFEB9F1020F22
:10085000286225D12B46049A43F82C2F6B62062080
:10086000AC62FEE646462368DDF80C8069E7204668
:10087000FFF76EFC02460434AC6328461446AFF31F
:10088000008000283FF4ECAE384622460F21FFF7E7
:1008900071FE0720E5E60D213846FFF745FE286288
:1008A000049B6B62DBE70BF1010004EB800079E74E
:1008B000000000000023A9E60123A7E60223A5E625
:1008C0002DE9F043064615461C46C3B0042900F244
:1008D000B880DFE801F09C56B62D0300002C40F0F4
:1008E000B080102A00F2AD800368D80600F1F180D4
:1008F00020AF384600F090F9012438460023B16B50
:1009000004FA03F22A4203F1010305D00A4652F821
:1009100004CB1146C0F800C0042B00F10400EFD155
:100920003846B16300F06EF9002043B0BDE8F083B3
:10093000032C40F0868094B204EB1243102B4FEA54
:1009400012457ED803681F0700F1CB8020AF3846E0
:1009500000F036F9B26B07EBC50154B10B4601EB61
:10096000C401D01AE4001D5843F8045B8B42FAD14D
:1009700022443846B26300F001F9002043B0BDE8DC
:10098000F083012C4FEA124895B256D0052C58D16D
:1009900008EB0509B9F1200F53D8B8F10F0F73D93F
:1009A000A946002D40F08480B36B65B320AF4FF0B3
:1009B000000907EBC807043F03EBC50553F8041B08
:1009C000AB4247F8041FF9D1B9F1000F0FD06F46C1
:1009D0004146102938BF102107EBC101843903EBD0
:1009E000C90553F8040BAB4241F8040FF9D1012CAF
:1009F0007FD0B8F10F0FB56342D9B9F1000F02D023
:100A0000684600F0B3F8002043B0BDE8F083C4B9F5
:100A100023460124826B371DA8B204FA03F1014278
:100A20001CBF52F8041B47F823100133102BF4D1DC
:100A300015F40050E7D1B26304E008EB0503102B76
:100A400003D9022043B0BDE8F083B8F10F0FF8D806
:100A50003368DA0706D5304623F0030340F8483BF5
:100A600000F078F820AF384600F074F8B36B002D32
:100A70009DD11D4604353846B56300F067F8C2E7DE
:100A800020A800F06BF8B8E7B9F1100F3FD9A9F131
:100A900010093368D90708D5304623F0010343F025
:100AA000020340F8483B00F05DF8B9F1000F31D087
:100AB00033685A071FD4B8F10F0F24D96F46C8F115
:100AC0001005384600F056F8002DB36B80DD20AFDE
:100AD0006FE723F01003336006F5E87000F09CF830
:100AE00006E723F00803036000F5A87000F068F83B
:100AF0002CE720AFBEE7304623F0040340F8D03B9C
:100B000000F038F8D7E720A800F02CF8D6E74FF02F
:100B10000009BEE7B8F10F0F3FF646AF20AF3846E9
:100B200000F020F8B36B002D7FF441AF384600F0A1
:100B300015F868E700F1340191E838009C46A646B4
:100B40004CF8045D90E8FF0FE54600BD90EC210BEA
:100B5000704700BF80EC210B704700BF90EC200B6A
:100B6000704700BF80EC200B704700BFD0EC200B1B
:100B7000704700BFC0EC200B704700BFF0EC0201D3
:100B8000F0EC0211F0EC0221F0EC0231F0EC024149
:100B9000F0EC0251F0EC0261F0EC0271F0EC028139
:100BA000F0EC0291F0EC02A1F0EC02B1F0EC02C129
:100BB000F0EC02D1F0EC02E1F0EC02F1704700BF82
:100BC000E0EC0201E0EC0211E0EC0221E0EC023189
:100BD000E0EC0241E0EC0251E0EC0261E0EC027179
:100BE000E0EC0281E0EC0291E0EC02A1E0EC02B169
:100BF000E0EC02C1E0EC02D1E0EC02E1E0EC02F159
:100C0000704700BFB0FC0181B0FC0191B0FC01A1B4
:100C1000B0FC01B1704700BFA0FC0181A0FC0191B4
:100C2000A0FC01A1A0FC01B1704700BFEC4600B5DB
:100C30002DE900502DE9FF1F4FF000032DE90C00B6
:100C400001A9FFF7E7FBDDF840E012B0704700BFF5
:100C5000EC4600B52DE900502DE9FF1F4FF00003D1
:100C60002DE90C0001A9FFF713FCDDF840E012B0FC
:100C7000704700BFEC4600B52DE900502DE9FF1F7D
:100C80004FF000032DE90C0001A9FFF723FCDDF86C
:100C900040E012B0704700BFEC4600B52DE90050AF
:100CA0002DE9FF1F4FF000032DE90C0001ABFFF70A
:100CB000E5FBDDF840E012B0704700BFEC4600B540
:100CC0002DE900502DE9FF1F4FF000032DE90C0026
:100CD00001AAFFF75BFCDDF840E012B0704700BFEF
:100CE000027A03467AB9427AA2B14FF0030C416806
:100CF000013A427208680A1D5A60020283F808C06D
:100D0000000E1A6070470068013A1A7202021A60F7
:100D1000000E7047B0207047002300B585B003A9CE
:100D200000910C221946FFF7E7FB039805B05DF828
:100D300004FB00BFF0E700BF2DE9F0434FF00008CF
:100D400005460E4685B03046FFF7CAFFB028044678
:100D500000F0BA80070620D500F0F003802B4DD0BC
:100D6000902B36D0A02B60D0B02B73D0C02B00F0CE
:100D70008A8000F0F803D02B0BD100F0070201327B
:100D800005230121284642F40022FFF799FD00289F
:100D9000D9D0092005B0BDE8F0838300DBB21F1D68
:100DA00000230DF10C0919460D222846CDF80090BC
:100DB000FFF7A2FB039B60064CBFDF1BFF1800235D
:100DC0000D2228461946CDF800900397FFF7BAFB8D
:100DD000B9E700F00D030D2BDBD0002303AF19465C
:100DE00000F00F0200972846FFF786FB00230D2234
:100DF000284619460097FFF7A5FBA4E73046FFF702
:100E00006FFF24022043B0F5004FC2D0002304013D
:100E100019462846A2B2FFF753FD0028B9D114F4B1
:100E2000004F18BF4FF001088DE7C3434FF47F62B6
:100E300003F007031A410023010702F47F6248BF51
:100E400042F4804228461946FFF73AFD00283FF455
:100E50007AAF9EE7B1283CD0B22800F0B080B3282A
:100E60004AD000F0FC03B42B93D0012300F007021A
:100E70001A442846194642F40022FFF721FD0028B3
:100E80003FF461AF85E7C6284FD0C72861D000F096
:100E9000F803C02B70D0C8287CD0C9287FF479AF64
:100EA0003046FFF71DFF05230246012128461403A3
:100EB00002F00F0204F470240A442243FFF700FDFD
:100EC00000283FF440AF64E7B8F1000F1CD00020C9
:100ED00060E73046FFF704FF024600283FF459AFB1
:100EE00010F0F0037FF455AF19462846FFF7E8FCF1
:100EF00000283FF428AF4CE73046FFF7F1FE01230E
:100F0000024619462846D2E703AC43460E22414624
:100F100028460094FFF7F0FA43460F222846414640
:100F20000094FFF70FFB404634E73046FFF7D8FE4A
:100F300002460323140302F00F0204F4702401326A
:100F4000284619462243FFF7BBFC00283FF4FBAEBE
:100F50001FE73046FFF7C4FE024600283FF419AFF2
:100F600010F0F0037FF415AF04212846FFF7A8FC2A
:100F700000283FF4E8AE0CE7032300F00F02013233
:100F80002846194642F42022FFF79AFC00283FF435
:100F9000DAAEFEE63046FFF7A3FE0246012102F07C
:100FA000F00402F00F0210340A440523284642EAF6
:100FB0000432FFF785FC00283FF4C5AEE9E60023C4
:100FC0000DF10C090D2219462846CDF80090FFF7C7
:100FD00093FA3046FFF784FE02064FF002040CD568
:100FE000039B00F07F00A040184403903046FFF7B9
:100FF00077FE030604F10704F2D4039B00F07F029E
:10100000A24003F501731A440023039228460D22DF
:101010001946CDF80090FFF795FA94E60B464FF08D
:10102000030C00B5C26C1846536885B008320292B2
:1010300001A91A0E1B028DF80CC001938DF80D202A
:10104000FFF77AFE05B05DF804FB00BF08B5FFF7B7
:1010500071FE806C08BD00BF08B5FFF76BFEC06C69
:10106000C379023300EB830008BD00BF844641EA28
:10107000000313F0030349D1403A23D30B68036004
:101080004B6843608B688360CB68C3600B69036106
:101090004B6943618B698361CB69C3610B6A0362EE
:1010A0004B6A43628B6A8362CB6AC3620B6B0363D6
:1010B0004B6B43638B6B8363CB6BC36340304031BB
:1010C000403ADBD230320BD30B6803604B6843608D
:1010D0008B688360CB68C36010301031103AF3D254
:1010E0000C3205D351F8043B40F8043B043AF9D2E2
:1010F000043208D0D2071CBF11F8013B00F8013BB5
:1011000001D30B8803806046704700BF082A13D3C1
:101110008B07B1D010F00303AED0C3F10403D21A91
:10112000DB071CBF11F8013B00F8013BA4D331F8E9
:10113000023B20F8023B9FE7043AD9D3013A11F869
:10114000013B00F8013BF9D20B7803704B784370F8
:101150008B78837060467047014803F0CDBF00BFB5
:101160007809002030B50B4C0B4D91B04022C823BC
:101170006946204603F0D6FE02460028F6D06946AE
:10118000204603F095FF4FF40051284600F098FDEB
:10119000ECE700BF8C0D00200010014003460A461A
:1011A0000148194603F0B0BF780900200146014804
:1011B00003F0F6BF780900200146014803F0FEBFA6
:1011C000780900200146014804F006B8780900209B
:1011D000F8B5164D164C174E284603F0CFFD2246A3
:1011E0002846154904F036F92A463046134D14496D
:1011F00003F078FF22463046124904F02BF9124FD3
:101200003121284603F000FE224628460F4904F00B
:1012100021F931462A46384603F06EFE224638460A
:10122000BDE8F8400A4904F015B900BF6404002085
:101230000000002078090020954D00087408002067
:10124000C4120020F55000088C0D0020D54E000877
:10125000194F00080B4B00B5596983B041F00101EB
:1012600059615B690F2003F00103019300220521FE
:10127000019B00F03FFA0F2003B05DF804EB00F093
:1012800077BA00BF0010024008B5FFF765FFFFF70F
:1012900069FF012001F04AFEFBE700BF08B500210D
:1012A000034A044801F0E0FD034B186008BD00BF8D
:1012B000105700088912000834120020002230B5AF
:1012C00089B0CDE90422CDE90622184B184D9C695E
:1012D000284644F010049C619C694FF4005104F0CE
:1012E00010040194019C9C6944F020049C619C6959
:1012F00004F020040294029C9C6944F004049C6164
:101300009B69002403F004030393039B00F0D4FCC7
:101310004FF4005201232846022504A9CDE90645D1
:10132000CDE9042300F0BAFB09B030BD0010024043
:101330000010014000230122D0B5012090B04FF4ED
:1013400080310224CDE90B33CDE90133CDE90333FC
:10135000089300930A9209934FF480324FF4E013FC
:10136000CDE9060106A8CDE90E230D9400F0B2FCEC
:1013700008B172B6FEE703460F2602270022049347
:101380004FF4806321466846CDE90067CDE902232A
:1013900000F090FE08B172B6FEE710B0D0BD00BFFD
:1013A00008B500F071F9FFF7C5FFFFF787FFFFF7FA
:1013B00051FF00F0BFF801F01BFDFFF76FFF01F0D8
:1013C00031FDFEE7034B02689A4200D0704700F0FF
:1013D0006DB900BF0008004072B6FEE7114B10B5B2
:1013E000986982B040F0010098619C69002204F085
:1013F00001040094009CDC690F2144F08054DC61FE
:10140000DB696FF0010003F080530193019B00F052
:1014100071F9054A536823F0E06343F000735360A9
:1014200002B010BD0010024000000140234B70B517
:10143000DA6988B042F00402DA61DB69054603F03C
:101440000403029301A903A8029B00F015FF069B69
:10145000D3B900F0F1FE0346002240F2E73118480C
:10146000184CA0FB03039B0C013B6360164B20460A
:10147000C4E90312A260A261236000F01FFF0646C8
:1014800030B1304608B070BD00F0D6FE4300E3E74F
:10149000204600F081FF06460028F2D11E2000F011
:1014A00067F90F2D01D90126EBE7324629461E20A8
:1014B00000F020F9054B1D60E3E700BF001002407B
:1014C00083DE1B4338120020000800400C0000207F
:1014D000FEE700BFFEE700BFFEE700BFFEE700BF7C
:1014E000FEE700BF704700BF014800F041BA00BFEF
:1014F00080120020014800F083BF00BF3812002096
:10150000014801F067BA00BFC412002001207047F3
:1015100008B503F0B9FF162203464FF0FF301A60FA
:1015200008BD00BF08B503F0AFFF16230360FEE758
:10153000704700BF00234FF461210C2210B5094809
:10154000094CC0E90113C0E90333C0E90523046075
:10155000C36101F003F800B910BDBDE81040FFF70A
:101560003BBF00BFC41200200038014070B500240A
:101570002A4B026886B09A42CDE90244CDE9044480
:1015800001D006B070BD03F558439A69054642F490
:1015900080429A619A69224802F480420092009A3D
:1015A0009A69204E42F004029A619B694FF40072DE
:1015B00003F004030193019903210223059102A979
:1015C000CDE9022300F06AFA4FF480620023144848
:1015D00002A9CDE90223049400F060FA80224FF4BE
:1015E000405311493046C6E90014C6E90444B460CA
:1015F000B461F260F36100F0C9F858B90022052126
:101600002520EE63756200F075F8252000F0B0F833
:1016100006B070BDFFF7E0FEF0E700BF0038014004
:10162000000801408012002058000240FFF7B6BDBC
:10163000FFF7BCBDFFF7C0BDFFF7C4BDFFF778FFE4
:101640000B480C490C4A002302E0D458C450043320
:10165000C4188C42F9D3094A094C002301E01360F5
:101660000432A242FBD303F015FFFFF799FE704747
:101670000000002044040020DC580008480400203A
:1016800060400020FEE70000074A08B51368032009
:1016900043F01003136000F01BF80F20FFF7C6FEA5
:1016A000FFF79CFE002008BD00200240034A044BC7
:1016B00011681B780B441360704700BF0C130020A7
:1016C00008000020014B1868704700BF0C13002071
:1016D0004FF6FF0C06490302CA6803F4E06302EA0E
:1016E0000C02134343F0BF6343F40033CB607047F5
:1016F00000ED00E01C4B00B5DB68C3F30223C3F12F
:10170000070EBEF1040F03F1040C28BF4FF0040EC6
:10171000BCF1060F1BD94FF0FF3C033B0CFA03FC56
:1017200022EA0C024FF0FF3C0CFA0EFC21EA0C01FD
:101730009940002841EA02010CDB090100F16040F8
:10174000C9B200F5614080F800135DF804FB002287
:101750001346E7E7054B00F00F000901C9B2034447
:1017600019765DF804FB00BF00ED00E0FCEC00E042
:10177000002807DB012300F01F01034A40098B40CA
:1017800042F82030704700BF00E100E070B303462C
:10179000022230B54FF0010C0024006883F82120AC
:1017A0000268DD6822F47F5ED3E901210A43104913
:1017B0002A43104D0144A5FB015109098900196410
:1017C00019692EF0300E0A4359690A4399690A4390
:1017D000D9690A43084942EA0E02D96302609C6350
:1017E00083F8204083F821C0204630BD0120704797
:1017F000F8FFFDBFCDCCCCCC00000240844690F871
:101800002000012840D030B501249CF821008CF83C
:101810002040A0425FFA80FE04D000238CF82030E4
:10182000022030BD02208CF821000020DCF80040AE
:10183000CCF838002568DCF8400025F0010525606B
:10184000DCF83C500EFA00F068606360DCF80430AD
:10185000102BDCF82C300BBFA260A160E160E260CD
:101860004BB1236843F00E0323602368002043F04C
:101870000103236030BD236823F004032360236841
:1018800043F00A032360F0E70220704790F821201C
:101890000346022A06D0042100220120996383F81E
:1018A0002020704700B54FF0010E4FF0000C026889
:1018B000116821F00E011160116821F00101116021
:1018C000D0E90F120EFA02F24A6083F821E083F8A1
:1018D00020C060465DF804FB90F821200346022AF0
:1018E00003D0042201209A637047026810B5116882
:1018F0001C4821F00E0111601168824221F00101A3
:10190000116024D018498A421DD014318A4220D057
:1019100014318A4220D014318A4220D014318A42B4
:101920000CBF4FF480124FF08072012100240F4849
:1019300042605A6B83F8211083F820402AB1184680
:101940009047204610BD1022EFE7104610BD01223F
:10195000EBE74FF48072E8E74FF48052E5E74FF48D
:101960008032E2E7080002401C0002400000024012
:10197000042270B4C66B016C346803688A4022424A
:101980001D681FD06A071DD51A68910603D41A680E
:1019900022F004021A603F4A934252D0143293421A
:1019A00062D01432934269D0143293426CD0143214
:1019B00093425ED0143293420CBF4FF480034FF039
:1019C00080633FE002228A40224222D0AA0720D52B
:1019D0001A68910606D401211A6822F00A021A60D8
:1019E00080F821102B4A934233D01432934243D0D3
:1019F0001432934245D01432934237D0143293427A
:101A000045D0143293420CBF4FF400134FF00073D3
:101A100020E008228A40224219D02A0717D51A68E6
:101A2000002422F00E021A600123026B03FA01F176
:101A30007160836380F8204080F821303AB170BC37
:101A4000104704231449C26A4B60002AF7D170BCC6
:101A5000704702230021104C826A636080F82010D6
:101A6000002AF4D070BC10474023EBE74FF400533A
:101A7000F0E74FF48023E5E72023EBE74FF48063A2
:101A8000E0E74FF40073E5E74FF48043DAE74FF403
:101A90000033DFE708000240000002402DE9F04F6C
:101AA0000E6883B0002E00F0B58000227A4F924677
:101AB00013467A4DDFF8E88106E0013336FA03F485
:101AC00002F1040200F0A68001249C4034EA060ED4
:101AD00004EA060CF1D14E68122E00F29E80122EFE
:101AE0001AD8DFE806F0A7B9B5CE191919191919CE
:101AF00019191919191919B1BC00DFF8A8E17645AF
:101B000000F098800EF5702E764500F09380AEF5CB
:101B1000801E764500F08E80BCF1FF0F9CBF86468C
:101B200093464FF00F0684BF00F1040EA2F1200B84
:101B3000DEF800400AFA0BF906FA0BFB24EA0B0464
:101B400044EA0904CEF800404C6814F0805F79D074
:101B5000D7F818E003F003094EF0010EC7F818E0BB
:101B6000D7F818E04FEA89090EF0010ECDF804E02D
:101B7000DDF804E023F0030E0EF1804E0EF5803EFA
:101B8000DEF808B006FA09F62BEA0606DFF818B107
:101B9000584513D00BF5806B58456BD0DFF80CB16E
:101BA000584560D0DFF808B158450CBF4FF0030B23
:101BB0004FF0040B0BFA09F946EA0906CEF8086063
:101BC000AE6814F4801F14BF46EA0C0626EA0C0621
:101BD000AE60EE6814F4001F14BF46EA0C0626EA55
:101BE0000C06EE606E6814F4003F14BF46EA0C0663
:101BF00026EA0C066E6014F4803F2C681FD044EA7D
:101C00000C042C600E68013336FA03F402F104026E
:101C10007FF45AAF03B0BDE8F08F46450AD07FF697
:101C20006CAFDFF890E0764504D00EF5803E764547
:101C30007FF472AF8E683EBB4FF0040A6CE724EA73
:101C40000C042C600E6838E7CC6804F1040A63E7E2
:101C5000CC6804F1080A5FE7D1F80CA05CE7CC6817
:101C600004F10C0A58E74FF0020B0BFA09F946EAA7
:101C70000906A3E74FF0010B0BFA09F946EA09063A
:101C80009CE74FF0000A47E7012E4FF0080A0CBF0F
:101C90000461446140E700BF0010024000040140BD
:101CA0000000221000001210000801400010014046
:101CB000001401400000311002B9090401617047AD
:101CC000C36801EA030221EA030141EA024101611A
:101CD000704700BF002800F0B6812DE9F04103688D
:101CE0000446DD0782B035D59A494A6802F00C02F5
:101CF000042A00F0EF804A6802F00C02082A00F083
:101D0000E5806368B3F5803F10D0002B00F00C81B4
:101D1000B3F5A02F00F082818E4B1A6822F4803236
:101D20001A601A6822F480221A6004E0894A136853
:101D300043F480331360FFF7C5FC864E054605E08B
:101D4000FFF7C0FC401B642800F2EA8033689A0366
:101D5000F6D523689F0728D57E4A516811F00C0FED
:101D600000F08D80516801F00C01082900F083809B
:101D70002369002B00F018810122774B754E1A6001
:101D8000FFF7A0FC054605E0FFF79CFC401B02287E
:101D900000F2C68033689807F6D53368626923F08D
:101DA000F80343EAC203336023681A071FD45D07B0
:101DB00042D5684BDA69D0007DD50025674E33687F
:101DC000D90540F19D80E368012B00F0FE80002BD7
:101DD00000F0CA80052B5F4B1A6A00F02C8122F0BC
:101DE00001021A621A6A22F004021A62F2E0A3697E
:101DF000002B4FD00122584B564EC3F88024FFF7DA
:101E000061FC054605E0FFF75DFC401B022800F27F
:101E10008780736A9B07F6D5514B524A1B68A2FB19
:101E200003235B0A019300BF019B5A1E0192002B02
:101E3000F9D123685D07BCD4E069C0B1454D6B683A
:101E400003F00C03082B00F0D8800022424B02283C
:101E50001A6600F0FA80FFF735FC044604E0FFF74D
:101E600031FC001B02285BD82B689B01F7D40020B3
:101E700002B0BDE8F0815268D6033FF579AF354A2C
:101E80001268950730D52269012A2DD0012002B0B1
:101E9000BDE8F081304A2F4EC2F88034FFF712FCC3
:101EA000054604E0FFF70EFC401B022838D8736A91
:101EB0009F07F7D4BDE7DA69012542F08052DA6165
:101EC000DB6903F080530093009B77E74A68D003F7
:101ED0007FF517AF1F4A126891037FF53BAF626829
:101EE000002A7FF437AFD1E71A4960690A6822F007
:101EF000F80242EAC0020A601A077FF558AF76E797
:101F0000336843F480733360FFF7DCFB07463368C4
:101F1000DA053FF558AFFFF7D5FBC01B6428F6D9AB
:101F2000032002B0BDE8F0810A4D2B6823F4803312
:101F30002B602B6823F480232B60FFF7C3FB06463E
:101F400004E0FFF7BFFB801B6428E9D82B689B03E4
:101F5000F7D4FEE60010024000004242007000404C
:101F600004000020D34D6210504E41F28838336A8D
:101F700023F001033362336A23F004033362FFF773
:101F8000A1FB074604E0FFF79DFBC01B4045C7D8F7
:101F9000336A9807F7D4002D3FF44EAF434AD36914
:101FA00023F08053D36147E7414A404E1360FFF767
:101FB00089FB054604E0FFF785FB401B0228AFD8EC
:101FC00033689907F7D42368EFE6384A136A43F079
:101FD00001031362FFF776FB41F288380646334F60
:101FE00004E0FFF76FFB801B404599D83B6A9B07D5
:101FF000F7D5002D3FF420AFD0E701283FF438AFEC
:102000006B68226A03F4803191427FF43FAF606ACB
:1020100003F47013181A18BF012029E703F1804355
:10202000A3F53C331A6842F480221A601A6842F41D
:1020300080321A607FE642F004021A621A6A42F0A5
:1020400001021A62C6E701207047FFF73BFB064614
:1020500005E0FFF737FB801B02283FF661AF2B68D6
:102060009901F6D4236AB3F5803F05D16A68A16867
:1020700022F400320A436A6001200C4D616A6A68EA
:102080000B4322F474120A4913436B600866FFF78E
:1020900019FB044605E0FFF715FB001B02283FF67D
:1020A0003FAF2B689A01F6D5E1E600BF0010024071
:1020B00000004242002800F0A180564A2DE9F0417C
:1020C0001368044603F007038B420D460CD21368D5
:1020D00023F007030B431360136803F007038B42DD
:1020E00002D00120BDE8F08123689E0714D558076F
:1020F00004D549494A6842F4E0624A60190704D5A8
:1021000045494A6842F460524A604349A0684A68B7
:1021100022F0F00202434A60DA0720D562683E4BA3
:10212000012A1B686CD0022A65D09E07D9D53A4E89
:1021300041F28838736823F0030313437360FFF799
:10214000C1FA074604E0FFF7BDFAC01B40455AD864
:102150007368626803F00C03B3EB820FF3D12D4A6E
:10216000136803F00703AB4209D9136823F0070390
:102170002B431360136803F00703AB42B1D123680C
:10218000580706D52449E0684A6822F4E062024311
:102190004A60190707D5204A2169536823F4605320
:1021A00043EAC10353601C494A6802F00C03082B40
:1021B00010D01A4B184A1A4852681A49C2F303122F
:1021C000805C194AC34008681360FFF72FF90020AC
:1021D000BDE8F0811548C2F38343D203C35C14D534
:1021E0000E484A6800FB03F31149C2F340428A5C7F
:1021F000B3FBF2F3DEE79F0199D472E70120704749
:102200009B0394D46DE703206CE70A4A02FB03F3B7
:10221000D0E700BF002002400010024000127A0008
:10222000345700080C000020040000204C57000820
:102230005C57000800093D00044B054A5B680549EE
:10224000C3F30223CB5C1068D840704700100240F3
:102250000400002044570008044B054A5B68054908
:10226000C3F3C223CB5C1068D84070470010024013
:1022700004000020445700080F220D4B02605A68EA
:1022800010B402F0030242605A680A4C02F0F002F5
:1022900082605A6802F4E062C2605B68DB0803F4A3
:1022A000E0630361236810BC03F007030B60704711
:1022B0000010024000200240704700BF002866D096
:1022C00010B590F83D30044603F0FF02002B45D0D6
:1022D000022322682F4984F83D308A42136842D095
:1022E000B2F1804F11D0A1F594318A420DD001F5A1
:1022F00080618A4209D0A06923F080030343E1682A
:1023000013606368D162936210E0A16823F07003E8
:1023100020690B4323F44073A169034323F0800336
:10232000E0680B4361681360D062916201235361DE
:1023300084F8463084F83E3084F83F3084F84030EA
:1023400084F8413084F8423084F8433084F84430D3
:1023500084F8453084F83D30002010BD80F83C20E2
:10236000FFF7AAFFB4E7A06823F0700321690343D5
:1023700023F440730B43A16923F080030B431360E4
:10238000E368D3626368936263691363CEE70120F5
:10239000704700BF002C014090F83D30012B1FD149
:1023A0000222036880F83D20DA680F4942F00102FA
:1023B0008B42DA6009D0B3F1804F06D00B4A9342CA
:1023C00003D002F58062934204D19A6802F00702BA
:1023D000062A07D01A68002042F001021A607047EE
:1023E0000120704700207047002C0140000400408D
:1023F000704700BF704700BF704700BF704700BF05
:10240000036810B51A690446910702D5DA68920785
:102410005FD41A69500702D5DA68510746D41A69A1
:10242000120702D5DA6810072ED41A69D20602D52F
:10243000DA68D00618D41A69D10702D5DA68D2074B
:102440005DD41A69100602D5DA6811065FD41A69DC
:10245000520602D5DA68500661D41A69910602D58F
:10246000DA68920643D410BD6FF01001082219619A
:102470002277DB69204613F4407F64D0FFF7BAFF70
:10248000002223682277D6E76FF008010422196141
:102490002277DB692046990752D1FFF7A9FF204632
:1024A000FFF7AAFF002223682277BEE76FF004013E
:1024B0000222196122779B69204613F4407F3CD1A8
:1024C000FFF796FF2046FFF797FF00222368227749
:1024D000A5E76FF002010122196102779B699B0752
:1024E00025D0FFF787FF00222368227791E76FF05E
:1024F00020022046BDE810401A6100F02BB86FF0B2
:10250000010220461A61FEF75DFF236899E76FF02C
:10251000800220461A6100F01FF8236897E76FF0E9
:10252000400220461A61FFF769FF236895E7FFF72D
:102530005FFF2046FFF760FFD5E7FFF75BFFC4E7CB
:10254000FFF758FFAEE7FFF753FF2046FFF754FFB2
:1025500096E700BF704700BF704700BF002865D0F6
:10256000F8B590F84130044603F0FF02002B55D037
:10257000D4E902272421206923680243606984F892
:1025800041100243D868A66920F40050D860196948
:10259000274D21F4405139431961D968AB4221F4E8
:1025A000B05121F00C0142EA0102DA605A6922F4CA
:1025B000407242EA06025A6135D0FFF73DFE62687A
:1025C00000EB8003920003EB8303B3FBF2F364267A
:1025D00000254FF0200C17482168A0FB0372520918
:1025E00006FB12331B013233A0FB0303120102EB83
:1025F00053138B600B69284623F490430B614B699E
:1026000023F02A034B61CB6843F40053CB6065642D
:1026100084F841C084F842C06563F8BD80F840206A
:10262000FEF7A4FFA4E7FFF717FEC8E701207047F5
:10263000003801401F85EB512DE9F8431D4690F805
:102640004130202B6BD1884609B1174612B90120C1
:10265000BDE8F88321234FF000090446C0F84490F8
:1026600080F84130FFF72EF8A3680646B3F5805F87
:10267000A784E78456D0E38C9BB2002B7BD02368E1
:10268000691C1BD11A681206FCD5B8F1000F41D0A5
:1026900018F8012B5A60E28C013A92B2E284E28C83
:1026A00092B2002AECD1681C42D11A685106FCD5BE
:1026B000202384F841300020BDE8F8831A6817060B
:1026C000E3D42DB1FEF7FEFF801B85422368D7D2ED
:1026D00003F10C0252E8002F22F4D07203F10C0037
:1026E00040E800210029F3D103F1140252E8002F41
:1026F00022F0010203F1140040E800210029F3D187
:10270000202384F8401084F8413084F842300320BC
:10271000BDE8F88339F8022BC2F30802BAE70220B9
:10272000BDE8F8832369002BA5D1C1469846A2E7EE
:102730001A685206BCD42DB1FEF7C4FF831B9D421C
:102740002368B0D203F10C0252E8002F22F4D072B9
:1027500003F10C0040E800210029F3D103F1140239
:1027600052E8002F22F0010203F1140040E800219A
:102770000029F3D1C4E7236895E700BF704700BF85
:1027800008B5406A0368596990F84120212A0BD0A6
:10279000596990F84220222A1ED0436C43F010035E
:1027A0004364FEF749FF08BD0906F1D50022C28443
:1027B00003F10C0252E8002F22F0C00203F10C0CCE
:1027C0004CE800210029F3D1202280F841205969EA
:1027D00090F84220222AE0D14A06DED50022C285A6
:1027E00003F10C0252E8002F22F4907203F10C0C5A
:1027F0004CE800210029F3D103F1140252E8002F24
:1028000022F0010203F1140C4CE800210029F3D15D
:10281000026B012A05D02022002380F842200363A6
:10282000BBE703F10C0252E8002F22F0100203F183
:102830000C0C4CE800210029F3D1ECE708B500238B
:10284000406AC385C384FEF7F7FE08BD08B50123BF
:10285000406A4363036B012B02D0FFF78FFF08BD73
:10286000818D4908FEF7E2FE08BD00BF08B5036888
:10287000406A1A6812F020022BD10368C28503F166
:102880000C0252E8002F22F4807203F10C0C4CE889
:1028900000210029F3D103F1140252E8002F22F0A5
:1028A000010203F1140C4CE800210029F3D103F1DB
:1028B000140252E8002F22F0400203F1140C4CE8FD
:1028C00000210029F3D1202280F84220026B012A46
:1028D00007D000234363036B012B0FD0FEF7AAFE42
:1028E00008BD03F10C0252E8002F22F0100203F1A0
:1028F0000C0C4CE800210029F3D1EAE7818DFEF7AA
:1029000095FE08BD8368B3F5805F45D0826A002BD1
:102910003AD003685B6803F07F031370836A013366
:102920008362C38D013B9BB2C385002B33D14FF033
:10293000200C026800B5D16883B021F02001D1607D
:10294000D16821F48071D160516921F00101516198
:1029500080F842C04363016B012928D1036302F16F
:102960000C0353E8003F23F0100302F10C0C4CE879
:1029700000310029F3D11368DB0622D4818DFEF7E4
:1029800055FE03B05DF804FB0369002BC1D1036859
:102990005B681370C2E7704703696BB90268836AAA
:1029A0005268C2F3080223F8022B8362B9E7FEF7EC
:1029B00041FE03B05DF804FB0368826A5B68137034
:1029C000ACE7002301931368019353680193019BC3
:1029D000D4E700BF30B5036804461A6883B012F02C
:1029E0000F0FD9685D696FD1950602D58D0600F18C
:1029F000B280206B01280BD0100602D50D0600F125
:102A0000B480500602D54A0600F1CE8003B030BD36
:102A1000D506F1D5C806EFD5002201921A680192B9
:102A20005A680192019A5A69550640F11781E06B84
:102A30000268526892B2002AE8D0A18D9142E5D98D
:102A4000E2858269202A36D003F10C0252E8002F79
:102A500022F4807203F10C0545E800210029F3D12E
:102A600003F1140252E8002F22F0010203F11405D1
:102A700045E800210029F3D103F1140252E8002FA8
:102A800022F0400203F1140545E800210029F3D1AA
:102A9000202284F84220216303F10C0252E8002F27
:102AA00022F0100203F10C0545E800210029F3D1C2
:102AB000FEF7ECFEA18D02236363E38D2046C91A65
:102AC00089B2FEF7B3FDA1E705F0010501F49070AE
:102AD00028438ED0D00705D5C80503D5606C40F0DB
:102AE00001006064500731D54DB1606C40F00200C8
:102AF0006064900703D5606C40F0040060641007C8
:102B000007D501F02000284303D0606C40F0080096
:102B10006064606C00283FF479AF900609D589069F
:102B200007D594F84220222A03D12046FFF7EAFE77
:102B300023685A69656C02F0400205F008051543E8
:102B40003DD12046FEF778FD65645FE79007D6D556
:102B5000002DD0D1D3E790F84230222B7FF456AF2E
:102B600003B0BDE83040FFF7CDBE94F84120212AE4
:102B70007FF44CAFA268B2F5805F00F0AA80226AB1
:102B8000511C216212785A60E28C013A92B2E284BE
:102B9000002A7FF43BAFDA6822F08002DA60DA685C
:102BA00042F04002DA6031E72021DA68204622F064
:102BB0004002DA6084F84110FEF73AFD26E703F19F
:102BC0000C0252E8002F22F4907203F10C0040E84E
:102BD00000210029F3D103F1140252E8002F22F062
:102BE000010203F1140040E800210029F3D1226B17
:102BF000012A22D00022202184F8421022635A693F
:102C0000520627D503F1140252E8002F22F04002A9
:102C100003F1140040E800210029F3D1E06BC8B1B2
:102C2000324B4363FEF758FE00283FF4EFAEE06BF3
:102C3000436B03B0BDE83040184703F10C0252E883
:102C4000002F22F0100203F10C0040E800210029BF
:102C5000F3D1CFE72046FEF7EFFCD7E6E18DE28D1A
:102C600089B292B2002A3FF4D1AEA28D511A89B234
:102C700000293FF4CBAE03F10C0252E8002F22F4FE
:102C8000907203F10C0545E800200028F3D103F110
:102C9000140252E8002F22F0010203F1140545E866
:102CA00000200028F3D1202284F84220206303F181
:102CB0000C0252E8002F22F0100203F10C0545E847
:102CC00000200028F3D1022320466363FEF7AEFC08
:102CD0009CE62269002A7FF452AF226A32F8021B76
:102CE000C1F30801596022624EE700BF3D28000889
:102CF000F0B500254FF0220E0446456480F842E00E
:102D0000816282851346C06B0A46DFF878C021686D
:102D10001D4F1E4E83B00431C0E90AC7C0E90C65DF
:102D2000FEF76CFD236801951968226901915968C5
:102D3000019101995AB103F10C0252E8002F42F4BB
:102D4000807203F10C0040E800210029F3D103F167
:102D5000140252E8002F42F0010203F1140040E88F
:102D600000210029F3D103F1140252E8002F42F0B0
:102D7000400203F1140141E800200028F3D103B020
:102D8000F0BD00BF6D2800084D280008812700080D
:102D900090F842C0BCF1200F06D139B330B583B0F2
:102DA00022B9012003B030BD022070470125002365
:102DB000056343630446FFF79BFF0028F2D1236BB2
:102DC000AB42EED1226801901368019353680193DE
:102DD000019B02F10C0353E8003F43F0100302F1A2
:102DE0000C0444E800310029F3D1DBE701207047EF
:102DF000EFF3058383B9EFF310836BB9084B1868C1
:102E0000022803D028B901221A607047EFF311831A
:102E100013B94FF0FF3070476FF00500704700BFE7
:102E20006C150020EFF30583C3B910B5EFF31084E0
:102E30008CB90C4B1A68022A07D0012A08D1022249
:102E40001A6001F0B5F9204610BDEFF3118313B9F4
:102E50004FF0FF3010BD6FF0050010BD6FF00500A2
:102E6000704700BF6C150020F0B5002487B00594B2
:102E7000EFF30585002D3BD1EFF31083002B3ED1FE
:102E8000294B1B68022B36D0002838D000238DF840
:102E9000133002B31468002C39D09569002D31D05D
:102EA0006E1E372E24D85368DB0721D453695BBBD1
:102EB0004FF0800C96686EB3D7685B2F1FD91269EC
:102EC000EAB1E3B10B46CDE9012621466246009501
:102ED00001F012F80DE0802218250DF113040B46C5
:102EE000214605AC0095019401F0BAF8012806D0FE
:102EF000002007B0F0BDEFF31183002BC4D005987C
:102F000007B0F0BD1825CEE74FEA930CD2E70DF1DC
:102F10001304C2E7D368002BF1D11369002BEED163
:102F20001FFA8CF2DBE700BF6C15002008B5EFF349
:102F3000058363B9EFF310834BB9084B1B68022B71
:102F400001D038B908BDEFF31183002BF9D06FF031
:102F5000050008BD01F01EFB002008BD6C15002017
:102F6000802330B4034D044C05600C60136030BC0A
:102F7000704700BF10150020101300204FF480731D
:102F800030B4034D034C05600C60136030BC7047D7
:102F900070190020701500204FF0FF31002200F161
:102FA0000803C0E90131C0E903330260704700BF84
:102FB00000230361704700BF436810B49C68026837
:102FC0008C609C6801324B606160996010BC086144
:102FD0000260704730B40D686B1C10D000F108031C
:102FE0001C465B681A68AA42FAD902684B60013233
:102FF00099608C606160086130BC02607047046950
:103000006368F2E7036910B4D0E901125C688A6072
:1030100051600021844208BF5A601A680161013A78
:103020001A60186810BC704706480068006880F392
:10303000088862B661B6BFF34F8FBFF36F8F00DFB2
:1030400000BF000008ED00E000220E4B82B01B68BC
:103050000192013308D04FF0500383F31188BFF37E
:103060006F8FBFF34F8FFEE74FF0500383F311884C
:10307000BFF36F8FBFF34F8F019B002BFCD002B0CB
:10308000704700BF1000002010B44FF08074064B52
:1030900021F0010140E9021440F80C3C40F8202CDA
:1030A00010BC4038704700BF4930000800000000E5
:1030B000074B19680868B0E8F00F80F30988BFF380
:1030C0006F8F4FF0000080F311884EF00D0E7047A7
:1030D000303A00204FF0500383F31188BFF36F8F15
:1030E000BFF34F8F0B4A13680133012B136000D0DD
:1030F00070474FF0E023D3F8043DDBB2002BF7D04C
:103100004FF0500383F31188BFF36F8FBFF34F8FDE
:10311000FEE700BF10000020084A136843B94FF0D3
:10312000500383F31188BFF36F8FBFF34F8FFEE718
:10313000013B13600BB983F3118870471000002026
:10314000EFF30980BFF36F8F0D4B1A6820E9F00F82
:1031500010602DE908404FF0500080F3118801F015
:103160006FFA4FF0000080F31188BDE8084019683D
:103170000868B0E8F00F80F30988BFF36F8F7047DD
:10318000303A002008B54FF0500383F31188BFF3A5
:103190006F8FBFF34F8F01F0A9F828B14FF0E023F4
:1031A0004FF08052C3F8042D002383F3118808BD2B
:1031B0004FF0E02200210720064B10B4116191610D
:1031C0001B68054CA4FB03139B09013B536110BC16
:1031D0001061704704000020D34D62104FF0FF0CC7
:1031E00070B50724344B84B01A783449D2B20292B5
:1031F00083F800C01B783248DBB28DF807309DF8A9
:1032000007309DF8072003F05003120648BF06223E
:1032100004600B700ED59DF8073011465B00DBB2E1
:103220008DF807309DF80730013A1B06F3D40329C7
:1032300009D001604FF0500383F31188BFF36F8F03
:10324000BFF34F8FFEE74FF440764FF0E0230024AA
:10325000029A1949D2B206600A70D3F8202D194D8E
:1032600042F47002C3F8202DD3F8202D42F07042B2
:10327000C3F8202DFFF79CFF2C60FFF7D5FE01F06F
:10328000DFF92B680394013308D04FF0500383F328
:103290001188BFF36F8FBFF34F8FFEE74FF05003DE
:1032A00083F31188BFF36F8FBFF34F8F039B002B06
:1032B000FCD0002004B070BD00E400E0CC19002078
:1032C000D0190020100000202DE9F041054600F043
:1032D000FFFF514B1C68002C6BD0504B1F683D42C8
:1032E0002FD175B305F108006E071CBF20F0070051
:1032F000083030B3DFF828C1DCF80060864220D304
:10330000484B1D461B6803E01A6822B11D46134650
:1033100059688142F8D3A34213D098460A1A58F844
:1033200008EB102AC5F800E029D919184D070FD06D
:103330004FF0500383F31188BFF36F8FBFF34F8FAC
:10334000FEE701F017F94FF000084046BDE8F081B4
:103350004A60344A5860154612689142FBD8686842
:1033600005EB000E714547D0D1F804E001EB0E00EB
:10337000824248D00A608D4218BF296059682A4AA3
:10338000761A10683943864238BF16600022C3E9B6
:103390000021CCF8006001F0EDF818F0070FD4D050
:1033A0004FF0500383F31188BFF36F8FBFF34F8F3C
:1033B000FEE71E494F0708BF0A464FF0004718BFF7
:1033C000CA1D01F50051A1F1080424F0070418BF3B
:1033D00022F0070210461C60A31A114A124913601A
:1033E0000E4A0B60176000220E49C1E90002C4E9D1
:1033F0000022C0E9004372E7496800EB010EC5F8FE
:1034000004E02946B2E7A242B4D050681268704482
:1034100048600A60AFE700BFD4190020D839002007
:10342000DC390020E4390020E0390020D8190020E0
:10343000D0B1284A50F8043C126813420BD050F81F
:10344000081C91B14FF0500383F31188BFF36F8FC5
:10345000BFF34F8FFEE74FF0500383F31188BFF3A4
:103460006F8FBFF34F8FFEE7704710B523EA02035B
:1034700082B040F8043C184C019000F029FF0198FC
:10348000226850F8041C154B0A44083822601A467A
:103490001B689842FBD8546802EB040E704515D0A7
:1034A00000EB010C634508D00360824218BF106036
:1034B00002B0BDE8104001F05DB8094C2468A34299
:1034C000F2D018CB2144C0E90031EEE72144104688
:1034D0005160E5E7D8390020DC390020E4390020CC
:1034E000D419002070B51546026C0446866B2AB9C3
:1034F00005684DB300200136A66370BD7DB98068B4
:10350000FDF7B4FDA368226C13446268A360934284
:10351000F0D3236801362846A360A66370BDC06857
:10352000FDF7A4FD226CE36851429B1A2268E36018
:10353000934202D263680B44E360022DDAD1012E7C
:1035400038BF01260020D7E7406801F0F7F90136BF
:103550006560D1E730B583B09DF8185040B94FF0A1
:10356000500383F31188BFF36F8FBFF34F8FFEE7D4
:103570001C467BB102B3B1B150230193019B502B88
:1035800025D04FF0500383F31188BFF36F8FBFF343
:103590004F8FFEE74FF0500383F31188BFF36F8F17
:1035A000BFF34F8FFEE74FF0500383F31188BFF353
:1035B0006F8FBFF34F8FFEE791BB50230193019BA9
:1035C000502BDED10123224684F8463002E001234D
:1035D00084F84630C4E90F012260FFF77BFDD4E98F
:1035E0000F3101FB03F32268591A1344A260636090
:1035F0000A44FF230021E260A16304F1100084F873
:10360000443084F84530FFF7C7FC04F12400FFF78D
:10361000C3FCFFF781FD204684F84C5003B030BD59
:103620004FF0500383F31188BFF36F8FBFF34F8FB9
:10363000FEE700BF2DE9F04385B00192002800F0BD
:10364000A480044688461F46002900F09180022F7E
:103650000BD1E36B012B08D04FF0500383F311889B
:10366000BFF36F8FBFF34F8FFEE701F057F90546A9
:10367000002800F09380002504F12406FFF72AFDBE
:10368000A26BE36B9A42C0F0EF80022F00F0EC8057
:103690000198002800F00181002D00F0E180FFF783
:1036A0003BFD00F015FEFFF715FD94F84430FF2BAD
:1036B00004BF002384F8443094F84530FF2B04BF46
:1036C000002384F84530FFF727FD02A801A901F087
:1036D000D9F8002840F0E680FFF7FCFCA26BE36B12
:1036E0009A4268D0FFF718FDFFF7F4FC94F84520E4
:1036F00055B2002D04DC11E06A1ED3B255B26BB195
:10370000636A5BB1304601F06BF80028F4D001F039
:10371000FFF86A1ED3B255B2002BF1D1FF2384F813
:103720004530FFF7F9FCFFF7D5FC94F8442055B27B
:10373000002D14DD04F1100903E06A1ED3B255B266
:103740006BB123695BB1484601F04AF80028F4D018
:1037500001F0DEF86A1ED3B255B2002BF1D1FF237F
:1037600084F84430FFF7D8FC00F004FF012585E71A
:10377000036C002B3FF46BAF4FF0500383F31188C1
:10378000BFF36F8FBFF34F8FFEE74FF0500383F30C
:103790001188BFF36F8FBFF34F8FFEE7019B002BA4
:1037A0003FF46AAF4FF0500383F31188BFF36F8F7C
:1037B000BFF34F8FFEE704F11009FFF7ADFC484659
:1037C000019900F07FFFFFF785FC94F845305DB26A
:1037D000002D04DC11E06B1EDAB25DB26AB1636ADF
:1037E0005BB1304600F0FCFF0028F4D001F090F807
:1037F0006B1EDAB25DB2002AF1D1FF2384F84530A6
:10380000FFF78AFCFFF766FC94F844305DB2002DA8
:1038100004DC11E06B1EDAB25DB26AB123695BB100
:10382000484600F0DDFF0028F4D001F071F86B1E6F
:10383000DAB25DB2002AF1D1FF2384F84430FFF7F9
:103840006BFC00F097FE002890D14FF0E0234FF082
:103850008052C3F8042DBFF34F8FBFF36F8F85E7FE
:1038600002A801F003F81AE73A4641462046FFF75E
:1038700039FE636A002B53D148B14FF0E0234FF07B
:103880008052C3F8042DBFF34F8FBFF36F8FFFF744
:1038900043FC012005B0BDE8F0830090FFF73CFC3D
:1038A0000098F7E7FFF716FC94F845305DB2002D5D
:1038B00010DD04F1240603E06B1EDAB25DB24AB1FA
:1038C000636A3BB1304600F08BFF0028F4D001F072
:1038D0001FF8F1E7FF2384F84530FFF71DFCFFF7E1
:1038E000F9FB94F844305DB2002D10DD04F11006B0
:1038F00003E06B1EDAB25DB24AB123693BB13046D8
:1039000000F06EFF0028F4D001F002F8F1E7FF2389
:1039100084F84430FFF700FC00F02CFE0020B9E7EB
:1039200004F1240000F05CFF0028B0D0A5E700BF40
:103930002DE9F04385B00192002800F06181044632
:103940000F46002900F0968000F0E8FF002800F004
:103950009E80FFF7BFFBA56B002D73D1019B002B51
:1039600000F0F38002A800F081FFA84604F12406CD
:10397000FFF7D2FB00F0ACFCFFF7ACFB94F844304F
:10398000FF2B08BF84F8448094F84530FF2B08BF14
:1039900084F84580FFF7C0FB01A902A800F072FF80
:1039A000002840F08180FFF795FBA36B002B00F00F
:1039B000D280FFF7B1FBFFF78DFB94F845305DB285
:1039C000002D04DC11E06B1EDAB25DB26AB1636AED
:1039D0005BB1304600F004FF0028F4D000F098FFFF
:1039E0006B1EDAB25DB2002AF1D1FF2384F84530B4
:1039F000FFF792FBFFF76EFB94F844305DB2002DA9
:103A000014DD04F1100903E06B1EDAB25DB26AB195
:103A100023695BB1484600F0E3FE0028F4D000F0D3
:103A200077FF6B1EDAB25DB2002AF1D1FF2384F872
:103A30004430FFF771FB00F09DFDFFF74BFBA56BDA
:103A4000002D7ED0226C5AB1E1686368114499421E
:103A5000E16028BF2168384628BFE160FDF706FB1A
:103A6000013DA5632369002B40F0D380FFF754FB91
:103A700001206DE0036C002B3FF466AF4FF0500364
:103A800083F31188BFF36F8FBFF34F8FFEE7019B66
:103A9000002B3FF45EAF4FF0500383F31188BFF368
:103AA0006F8FBFF34F8FFEE7FFF714FB94F845309D
:103AB0005DB2002D04DC11E06B1EDAB25DB26AB1BA
:103AC000636A5BB1304600F08BFE0028F4D000F052
:103AD0001FFF6B1EDAB25DB2002AF1D1FF2384F81A
:103AE0004530FFF719FBFFF7F5FA94F844305DB263
:103AF000002D14DD04F1100903E06B1EDAB25DB293
:103B00006AB123695BB1484600F06AFE0028F4D030
:103B100000F0FEFE6B1EDAB25DB2002AF1D1FF2387
:103B200084F84430FFF7F8FA00F024FDFFF7D2FAEA
:103B3000A36B53B1FFF7F0FAFFF7CCFAA56B002D9A
:103B400080D1019B002B7FF413AFFFF7E5FA002033
:103B500005B0BDE8F083FFF7DFFA3046019900F0C9
:103B6000B1FDFFF7B7FA94F845305DB2002D04DCE3
:103B700011E06B1EDAB25DB26AB1636A5BB13046C6
:103B800000F02EFE0028F4D000F0C2FE6B1EDAB268
:103B90005DB2002AF1D1FF2384F84530FFF7BCFA6B
:103BA000FFF798FA94F844305DB2002D14DD04F16B
:103BB000100903E06B1EDAB25DB26AB123695BB132
:103BC000484600F00DFE0028F4D000F0A1FE6B1E68
:103BD000DAB25DB2002AF1D1FF2384F84430FFF756
:103BE0009BFA00F0C7FC0028A6D14FF0E0234FF06D
:103BF0008052C3F8042DBFF34F8FBFF36F8F9BE745
:103C00004FF0500383F31188BFF36F8FBFF34F8FD3
:103C1000FEE704F1100000F0E3FD00283FF426AFBA
:103C20004FF0E0234FF08052C3F8042DBFF34F8FC5
:103C3000BFF36F8F1AE700BF124B1A687AB19A6808
:103C400062B11A6992B19A6992B11A6A92B19A6A8A
:103C500092B11A6B92B19A6B92B17047012203EB49
:103C6000C20C43F83210CCF8040070470222F6E789
:103C70000322F4E70422F2E70522F0E70622EEE74A
:103C80000722ECE7F039002070B505460E461446D1
:103C9000FFF720FA95F84430FF2B04BF002385F886
:103CA000443095F84530FF2B04BF002385F845309C
:103CB000FFF732FAAB6B002B43D0FFF70BFA95F806
:103CC00045305CB2002C14DD05F1240603E0631ED0
:103CD000DAB25CB26AB16B6A5BB1304600F080FD6B
:103CE0000028F4D000F014FE631EDAB25CB2002AA1
:103CF000F1D1FF2385F84530FFF70EFAFFF7EAF917
:103D000095F844305CB2002C14DD05F1100603E098
:103D1000631EDAB25CB26AB12B695BB1304600F067
:103D20005FFD0028F4D000F0F3FD631EDAB25CB250
:103D3000002AF1D1FF2385F84430BDE87040FFF739
:103D4000EBB92246314605F1240000F0FFFCB4E750
:103D50002DE9F8430546FFF7BDF9344A344E1368A0
:103D6000013313603368002B32D0324C23683BB3ED
:103D7000E86A314F314A32491368013313606B648A
:103D80000B68834238BF086000EB800007EB8000BF
:103D9000291DFFF711F9FFF7BFF9236873B13268E6
:103DA000EB6AD26A9A4209D24FF0E0234FF0805278
:103DB000C3F8042DBFF34F8FBFF36F8FBDE8F883B7
:103DC0003368E86ADB6A1C4F834298BF3560D1E7ED
:103DD00035601368012B03D0E86A174F154CC9E70B
:103DE000154F3C4607F58C6820461434FFF7D4F88D
:103DF000A045F9D1DFF84C90DFF84C804846FFF73A
:103E0000CBF84046FFF7C8F81048FFF7C5F8104850
:103E1000FFF7C2F80F48FFF7BFF80F4B054CC3F888
:103E200000900E4BE86AC3F80080A3E79C3E002098
:103E3000303A0020F83E00203C3A0020AC3E002002
:103E4000B03E0020B43E0020C83E0020E43E0020EA
:103E5000103F0020FC3E0020343A0020383A002079
:103E60004FF0E0294FF0805880B51F4C1F4E204D79
:103E7000204F236853B3FFF72DF9F368D3F80CA054
:103E80000AF10400FFF7BEF82B68013B2B602368A2
:103E9000013B2360FFF740F99AF8593063B1012BD9
:103EA0001ED0022BE5D04FF0500383F31188BFF3EF
:103EB0006F8FBFF34F8FFEE7DAF83000FFF7B8FAE5
:103EC0005046FFF7B5FA2368002BD4D13B68012B8D
:103ED000CFD9C9F8048DBFF34F8FBFF36F8FC8E7F9
:103EE0005046FFF7A5FAC4E7A03E0020103F00208F
:103EF0009C3E00203C3A00202DE9F04383B09946D7
:103F00000B9B0C9DC3B175B10C465C2101910199CD
:103F10005C291AD04FF0500383F31188BFF36F8FE1
:103F2000BFF34F8FFEE74FF0500383F31188BFF3C9
:103F30006F8FBFF34F8FFEE74FF0500383F311886D
:103F4000BFF36F8FBFF34F8FFEE796000222A521CC
:103F500085F859200746324618462B6301F0BEFA11
:103F60002178321F85F83410296B0A4422F00708A3
:103F70002278002A4DD0627885F835206278002AB0
:103F800047D0A27885F83620A278002A41D0E2787E
:103F900085F83720E278002A3BD0227985F838204E
:103FA0002279002A35D0627985F839206279002A91
:103FB0002FD0A27985F83A20A27952B3E27985F818
:103FC0003B20E2792AB3227A85F83C20227A02B398
:103FD000627A85F83D20627ADAB1A27A85F83E20CD
:103FE000A27AB2B1E27A85F83F20E27A8AB1227BE6
:103FF00085F84020227B62B1627B85F84120627B9C
:104000003AB1A27B85F84220A27B12B1E27B85F80F
:1040100043200A9C0026372C28BF3724281DC5E9D9
:104020001346EC6285F84360FEF7C2FFC4F1380422
:1040300005F11800FEF7BCFF4A4639466E6540465A
:10404000AC612D616D6285F85860FFF71DF803467D
:1040500028462B60FFF77CFE284603B0BDE8F083BE
:104060002DE9F0479600804630460D469946FFF709
:104070002BF9002800F0928007465C20FFF724F916
:104080000446002800F08E8000230763324684F83F
:1040900059303846A52101F021FA2B78D4F830A008
:1040A00084F834302B78002B4DD06B7884F8353081
:1040B0006B78002B47D0AB7884F83630AB78002B88
:1040C00041D0EB7884F83730EB78002B3BD02B795C
:1040D00084F838302B79002B35D06B7984F839305F
:1040E0006B79002B2FD0AB7984F83A30AB7953B38E
:1040F000EB7984F83B30EB792BB32B7A84F83C30A6
:104100002B7A03B36B7A84F83D306B7ADBB1AB7AF0
:1041100084F83E30AB7AB3B1EB7A84F83F30EB7A77
:104120008BB12B7B84F840302B7B63B16B7B84F8A5
:1041300041306B7B3BB1AB7B84F84230AB7B13B13E
:10414000EB7B84F84330089D0027372D28BF3725A7
:10415000201DC4E91357E56284F84370043EFEF75E
:1041600027FF564404F11800C5F13805FEF720FF7B
:1041700067654A464146A5612461646284F85870C7
:1041800026F00700FEF780FF099B206003B11C604A
:104190002046FFF7DDFD0120BDE8F0874FF0FF303E
:1041A000BDE8F0873846FFF743F94FF0FF30F3E7FB
:1041B00070B5002484B0684602AA01A9CDE9004484
:1041C000FEF7CEFE0198C8B1009D75B15C22039246
:1041D000039A029E5C2A1AD04FF0500383F3118891
:1041E000BFF36F8FBFF34F8FFEE74FF0500383F3A2
:1041F0001188BFF36F8FBFF34F8FFEE74FF050036F
:1042000083F31188BFF36F8FBFF34F8FFEE74FF03B
:10421000020C06FA0CF685F859C03246A52128632F
:1042200001F05CF925492A6B331F6963281DC5E934
:10423000134485F8384085F84340EC62D618FEF701
:10424000B7FE05F11800FEF7B3FE382326F0070687
:1042500022461B496C65AB6130462D616D6285F865
:104260005840FEF711FF034628462B60FFF770FD0C
:1042700000F026FD01280CD0013001D004B070BD43
:104280004FF0500383F31188BFF36F8FBFF34F8F4D
:10429000FEE74FF0500383F31188BFF36F8FBFF336
:1042A0004F8F4FF0FF350749074A084B0D601060EC
:1042B0001C6004B0BDE87040FEF790BF49444C4517
:1042C000613E0008DC3E0020F83E0020243F002034
:1042D000024A136801331360704700BFA83E0020F4
:1042E000014B1868704700BF243F00202DE9F04FB4
:1042F0004D4B83B01B68002B44D14C4B1E680136DC
:104300001E60002E4CD04A4B01931B68B3425ED80E
:10431000484F3B681D68002D73D00025DFF81891C9
:10432000DFF818A1DFF8188121E05846FEF76AFE91
:10433000A36A04F118000BB1FEF764FEE06AD8F836
:1043400000305946984288BFC8F8000000EB800052
:1043500009EB8000FEF730FEDAF80030E26ADB6A33
:104360009A4228BF01253B681B68002B4DD03B6853
:10437000DB68DC68636804F1040B9E42D5D2019AC5
:10438000136029E000252F4A1368013313602E4B78
:104390001B68002B0CBF2846012003B0BDE8F08F3E
:1043A000244B1A6812681ABB284A186811681960E9
:1043B000274910600A6801320A601A6812684ABB0D
:1043C0004FF0FF331A4A1360019213469DE7002510
:1043D000DFF86490DFF864A0DAF80030DB6A03EB02
:1043E00083039B0059F80330022B28BF0125CEE739
:1043F0004FF0500383F31188BFF36F8FBFF34F8FDC
:10440000FEE7DFF83490DFF834A04FF0FF33019A75
:104410001360E1E71B68064ADB680192DB685B68B2
:104420001360134671E700BFA83E0020243F002020
:10443000DC3E0020343A00203C3A0020303A002094
:10444000B03E0020A43E0020283F0020383A002043
:10445000E03E00202DE9F84FFEF73CFE3B4B1A688A
:10446000013A1A601B68002B5AD1394B1B68002B8C
:1044700056D0384D2B68002B65D04FF0010A364ED0
:10448000DFF8D880364FDFF8DC90EB68DC6804F1A9
:10449000040B04F11800FEF7B5FD5846FEF7B2FD17
:1044A000E36A326803EB83009342594608EB8000CD
:1044B00088BF3360FEF780FD3B68E26ADB6A9A42A0
:1044C00034D3C9F800A02B68002BDED1264B1A6824
:1044D0001268002A32D01A68244BD268D268526817
:1044E0001A60234E346844B10125FFF7FFFE08B17E
:1044F000C9F80050013CF8D13460D9F800307BB1E4
:104500004FF0E0234FF08052C3F8042DBFF34F8FDC
:10451000BFF36F8F0124FEF7FFFD2046BDE8F88F43
:104520000024FEF7F9FD2046BDE8F88F2B68002B2C
:10453000ABD10D4B1A681268002ACCD14FF0FF3274
:104540000A4B1A60CDE7DFF81C90CAE7A83E0020AE
:104550009C3E0020E43E0020B03E00203C3A00207B
:10456000303A0020283F0020343A0020DC3E002072
:10457000A43E0020064B1B6843B94FF0500383F361
:104580001188BFF36F8FBFF34F8FFEE7FFF762BF56
:10459000A83E0020F8B550B94FF0E0234FF080520C
:1045A000C3F8042DBFF34F8FBFF36F8FF8BD1E4DBF
:1045B0002B6843B14FF0500383F31188BFF36F8F23
:1045C000BFF34F8FFEE704462B68184E0133184A9D
:1045D0002B60176830680430FEF714FD3368E41967
:1045E0005C6010D3134B186831680431FEF7F2FC9D
:1045F0002B68A3B94FF0500383F31188BFF36F8F7B
:10460000BFF34F8FFEE70C4B186831680431FEF79B
:10461000E1FC0A4B1A68944238BF1C60E8E7FFF7D8
:1046200019FF0028B8D0F8BDA83E0020303A00207D
:10463000243F0020383A0020343A0020DC3E00209D
:104640001B4B1B681BB101221A4B1A607047194A99
:1046500010B4194C13602368184903EB83029200CD
:104660008A58980042B9D3B1013B03EB830251F859
:1046700022209800002AF6D0C21801EB82000246E0
:104680004168083249689142416008BF49680C4A54
:1046900008BF4160C9681160236010BC70474FF0CB
:1046A000500383F31188BFF36F8FBFF34F8FFEE783
:1046B000A83E0020283F0020B03E00203C3A0020C9
:1046C000303A0020D0B170B50C461A4D2968183127
:1046D000FEF780FC184B1E6828680430FEF792FC39
:1046E000631C14D02B68A4195C6017D3134B186893
:1046F0002968BDE870400431FEF76CBC4FF05003F0
:1047000083F31188BFF36F8FBFF34F8FFEE72968E4
:104710000B480431BDE87040FEF74EBC094B1868E9
:1047200029680431FEF756FC074B1A68944238BFDB
:104730001C6070BD303A0020243F0020383A002031
:10474000FC3E0020343A0020DC3E002030B370B53F
:1047500015461D4E0C4631681831FEF72DFC1B4BDB
:1047600085B91D6830680430FEF74CFC3368641965
:104770005C601CD3164B18683168BDE8704004318A
:10478000FEF728BC1B6830680430FEF73BFC31683C
:1047900010480431BDE87040FEF70EBC4FF05003E6
:1047A00083F31188BFF36F8FBFF34F8FFEE70A4B80
:1047B000186831680431FEF70DFC084B1A68944202
:1047C00038BF1C6070BD00BF303A0020243F00207D
:1047D000383A0020FC3E0020343A0020DC3E002025
:1047E00038B5C368DC684CB304F118052846FEF7F9
:1047F00009FC184B1B6873B129461748FEF7DCFB10
:10480000164BE26A1B68DB6A9A4220D90123144ADC
:104810001846136038BD251D2846FEF7F3FB114AE4
:10482000E36A116810488B4288BF136003EB83036F
:10483000294600EB8300FEF7BFFBE1E74FF0500392
:1048400083F31188BFF36F8FBFF34F8FFEE7002014
:1048500038BD00BFA83E0020E43E0020303A0020D2
:10486000283F0020B03E00203C3A0020034A044B81
:1048700012681B68C0E90023704700BFE03E0020BB
:10488000243F0020F8B5F8B10D46A1B10446FEF76B
:1048900021FC2B681C4A581C11682BD0D4E900C09D
:1048A0001A4E3768BC4518D0884216D80126FEF744
:1048B00033FC3046F8BD4FF0500383F31188BFF34B
:1048C0006F8FBFF34F8FFEE74FF0500383F31188D4
:1048D000BFF36F8FBFF34F8FFEE7A1EB000C634573
:1048E0000DD95B1A3168126803442B600026C4E9B5
:1048F0000012DCE70026FEF70FFC3046F8BD00236F
:1049000001262B60D3E700BF243F0020E03E0020BB
:104910000122014B1A607047283F0020054B1B689D
:1049200033B1054B1B68002B0CBF022000207047E1
:1049300001207047F83E0020A83E002008B338B59B
:104940001D4B1C68844208D04FF0500383F311883C
:10495000BFF36F8FBFF34F8FFEE7236D43B1E16A63
:10496000E26C013B9142236500D063B1002038BD69
:104970004FF0500383F31188BFF36F8FBFF34F8F56
:10498000FEE700207047251D2846FEF73BFBE36C41
:104990000A4AC3F13800A0611068E3628342084804
:1049A00088BF136003EB830300EB83002946FEF707
:1049B00003FB012038BD00BF303A0020B03E00208C
:1049C0003C3A00202DE9F0434FF00008204EDFF87C
:1049D000849085B00CE0DB68DC681F68251D2846E4
:1049E000FEF710FB636A20469847E369012B0AD063
:1049F00033681A68002AEED1174A116813603160D3
:104A000005B0BDE8F083A3693B449F4206D2294626
:104A1000306863602461FEF7DDFAE9E7D9F8003019
:104A20006BB1CDE900870294FFF778FF0023694658
:104A30001A46D9F80000FEF7FDFD0028D8D14FF046
:104A4000500383F31188BFF36F8FBFF34F8FFEE7DF
:104A50002C3F002050400020303F00202DE9F04F37
:104A60004FF0E029924E934D934C8BB03368D3F8BE
:104A70000080B8F1000F00F0A680DB68D3F800805A
:104A8000FFF726FCFFF72CFC2A6882469042C0F014
:104A9000AB808045286040F2BA8000222068A8EBF5
:104AA0000A01FFF7F1F8FFF765FD38B94FF08053C1
:104AB000C9F8043DBFF34F8FBFF36F8F002220680A
:104AC00002A9FEF735FF0028D0D0029B002B71DB36
:104AD000049F7B6913B1381DFEF794FAFFF700FCC1
:104AE0002B6880469842C0F08680029BC5F8008003
:104AF000092BE3D801A252F823F000BF254B000890
:104B0000254B0008254B0008BD4A0008854B0008CE
:104B1000A54B0008254B0008254B0008BD4A00089E
:104B2000854B0008039BBA693F6199182CBF01208F
:104B300000204145796061D8A8EB03039A422BD845
:104B40007B6A38469847FB69012BB7D1236883B14C
:104B50000022BB690692039A089713440793FFF754
:104B6000DDFE002320681A4606A9FEF763FD002833
:104B7000A4D14FF0500383F31188BFF36F8FBFF3BD
:104B80004F8FFEE7039BBB61002B00F08380434403
:104B900043457B603F6135D8484B391D1868FEF7A7
:104BA00019FA8BE797F82C30002B87D13846FEF79F
:104BB0003FFC83E7039BDDE904019847029B002B40
:104BC000FFF67CAF84E7FFF783FBFFF789FB2A68DA
:104BD0008246824208D8394BC5F800A01A6812688C
:104BE000B2FA82F2520959E7FFF7ECFEC5F800A0CD
:104BF000FFF7C0FC62E7FFF7E5FE76E7434501D922
:104C000000289DD03068391DFEF7E4F956E7FFF71C
:104C1000B1FC3268D268D2F80CB00BF1040108463E
:104C20000191FEF7EFF9DBF81C000199012804D08F
:104C30005846DBF82430984740E7DBF81800CBF8FB
:104C400010B008EB00035345CBF8043003D93068AB
:104C5000FEF7C0F9ECE7AAEB0803984223D82368D3
:104C60007BB10023CDF81C800693CDF820B0FFF770
:104C700055FE002320681A4606A9FEF7DBFC002833
:104C8000D6D14FF0500383F31188BFF36F8FBFF37A
:104C90004F8FFEE74FF0500383F31188BFF36F8F00
:104CA000BFF34F8FFEE7054B1868FEF793F9BFE798
:104CB0002C3F0020FC3F002050400020303F0020CF
:104CC000F0B5234C89B0FEF705FA256835B3FEF739
:104CD00023FA2368CBB10024022507AA06A905A858
:104CE000CDE90544FEF74AF9DDE905012346CDE9A2
:104CF0000110079A174918480095FFF7FDF8174B60
:104D0000186010B1012009B0F0BD4FF0500383F3DB
:104D10001188BFF36F8FBFF34F8FFEE7104F114E17
:104D20003846FEF739F93046FEF736F90E4A009557
:104D300017600E4A102116600A200D4B0D4AFEF72F
:104D400009FC20600028C2D00B49FEF775FFBEE7C2
:104D500050400020685700085D4A00085440002079
:104D6000D43F0020E83F00202C3F0020303F0020AF
:104D700000400020343F00206057000800224FF41C
:104D80008061C0F804240160C0F80824C0F80C2435
:104D9000704700BF704700BFD0F8043402689342E8
:104DA00015D0D0F80C3410B45C1C0344C0F80C448B
:104DB0001971D0F8043410BC0133C0F80434D0F8B1
:104DC0000C34934224BF0023C0F80C347047704762
:104DD0000346D0F80824511CC0F80814D0F8041475
:104DE000024401391079C3F80414D3F8082419686F
:104DF0008A4224BF0022C3F808247047D0F8040474
:104E0000003818BF0120704710B54FF0000C8E46D7
:104E10000446614600F801EB2BE05A00D3B252B2CF
:104E2000002A33DB5A00D3B252B2002A34DB5A00D4
:104E3000D3B252B2002A35DB5A00D3B252B2002AA2
:104E400036DB5A00D3B252B2002A37DB5B00DAB24B
:104E50005BB2002B01F10101ACBF52008EEA4202AD
:104E60000CF1020CB1F5807F00F8012F5FFA8CFC89
:104E70002ED00B0627D463464FFA8CF2002ACCDAE8
:104E80008EEA43035AB2002ADBB2CBDA8EEA43033E
:104E90005AB2002ADBB2CADA8EEA43035AB2002AB7
:104EA000DBB2C9DA8EEA43035AB2002ADBB2C8DAAF
:104EB0008EEA43035AB2002ADBB2C7DA8EEA430213
:104EC00053B2D2B2C5E78EEA0C02134652B2D5E70E
:104ED000204610BD704700BF002343704AB101EB6C
:104EE000020C11F8012B534003449B786145437039
:104EF000F7D170474078704710B5044600F0C2F90A
:104F00000020FF210322142384F8240284F82512B0
:104F10002046C4E98A2310BD10B5044600F0C0F94C
:104F2000204610BD2DE9F04F4FF000094FF0010A67
:104F3000044690461F4685B00191CDF80C9000F5CF
:104F400057764FF496720021304600F0C7FA3B4680
:104F50004FF496723146204600F0D0F900284CD02C
:104F600094F85E33984548D394F8252294F85C333E
:104F7000934240D094F85D2384F82532012ACDF87D
:104F80000C903AD084F830320322204684F831A2C3
:104F900004F50C7100F086F9D4F82832002B2CDDD2
:104FA000002504F5916B03E0D4F82832AB4224DDF0
:104FB000202259462046D4F82C3200F09FF90135C2
:104FC0000028F1D094F8302294F888349A42EBD13A
:104FD00094F88934012BE7D1019894F85E2304F208
:104FE0005F31FCF743F8039B94F85E03002BA8D1D4
:104FF00005B0BDE8F08FCDF80CA0039B0020002B7E
:105000009FD105B0BDE8F08F2DE9F0410F4600219A
:10501000044616460D4600F50C784FF4967240464D
:1050200000F05CFA94F82432394684F830320133C7
:10503000DBB284F82432324684F8315284F832628A
:1050400004F23320FCF712F841462046F21C00F02F
:1050500029F9D4F82832AB42C8BF04F5577707DCEA
:1050600023E0D4F8283203EB4303B5EB430F1CDAFB
:105070004FF4967239462046D4F82C3200F03EF9AF
:1050800001350028EDD094F8302294F85C339A4230
:10509000E7D194F85D33012BE3D10246394620462F
:1050A00000F000F93046BDE8F0810020BDE8F08155
:1050B000F8B5D0F82832002B11DD05460E4617460C
:1050C000002403E0D5F82832A34208DD3A463146F1
:1050D0002846FFF799FF01340028F3D0F8BD0020DF
:1050E000F8BD00BF4FF0010C016080F80CC0C0F8A3
:1050F00010247047704700BF01464FF4007251F80A
:105100000D0BFDF745BE00BFF8B504460846216803
:10511000036809688B4200D0F8BD1646227BF2B1C5
:105120004FF0000C6FF020076FF0080584F80CC0FA
:105130004FF400721F6004F20D211D60FDF728FE80
:10514000002EE9D00C3604F10C05264415F8011F99
:10515000D4F81004FFF720FEB542F7D1F8BD4FF0A8
:10516000010C6FF020076FF0080584F80CC04FF4B5
:1051700000721F6004F10D011D60FDF709FE002E95
:10518000CAD006F5037604F50375264415F8011F09
:10519000D4F81004FFF700FEB542F7D1F8BD00BF08
:1051A00003680A681B689A4200D070474268002A68
:1051B000FBD0CB8C888C9BB2C01A104703680A685E
:1051C0001B689A4200D070478268002AFBD0CB8DC2
:1051D000888D9BB2C01A1047026838B512680B68F8
:1051E000934200D038BD6FF008021A60CB8D8A8DD3
:1051F0000546D21A92B20C46FFF786FF01232046DD
:1052000005F10D012B734FF40072BDE83840FDF736
:10521000BFBD00BF10B5144640F6B83392B2006867
:10522000FDF70AFA204610BD2DE9F04705468946EC
:1052300014461F46FCF746FA4FF0000806465CB1DC
:10524000D5F81004FFF7DAFD48B9FCF73BFA821BEA
:10525000BA4204F1FF34F2D94046BDE8F087D5F8F0
:105260001004FFF7B5FD09F80800FCF72BFA801BC6
:1052700008F1010AB842D04604F1FF34DFD94046B4
:10528000BDE8F08730B400244FF48075C0E90244D3
:1052900045610461C0F82042C0E9001230BC70478B
:1052A000704700BFF8B5154600F1180604460F46D2
:1052B0004FF482720021304600F010F94AF6AA231A
:1052C0002A4623833946A57604F11B000335171DB2
:1052D000FBF7CCFE2A4631466068FFF7FDFD6068AB
:1052E000FFF708FE2544287631463A462068FFF746
:1052F00091FFA3683B44A360F8BD00BF2DE9F04FC8
:10530000154600F58E7883B04FF4827204468A46C3
:10531000404600211F46019500F0E0F8FCF7D2F965
:1053200000234FF0050B81461E461D46C4F820326F
:10533000052B18D0FCF7C6F9A0EB0900B84219D824
:10534000D4F82032042BF3D8DFE803F05D4D3E2E75
:10535000030008EB05013B4601222068FFF764FFCC
:105360000135C4F820B2E3682E1F2B44B6F5807FC8
:10537000E36004D90026304603B0BDE8F08F6A1E12
:1053800041466068A518FFF7A7FD6068FFF7B2FD0A
:1053900095F81C31834247D00026304623690133FB
:1053A000236103B0BDE8F08F4EB1324608EB050132
:1053B0003B462068FFF738FF361A0544F5D1042331
:1053C0000026C4F82032B5E73B46012208EB050170
:1053D0002068FFF729FF0323621992F81C61013549
:1053E000C4F82032A6E73B460122206808EB0501FD
:1053F000FFF71AFF631993F81C31AA2B24D000255C
:10540000D4F8203294E73B460122206808EB0501DE
:10541000FFF70AFF631993F81C31AA2BEFD1012380
:10542000C4F820321D4485E7019BB342A2D3324623
:10543000504604F21F11FBF719FE0023304685F891
:105440001C3103B0BDE8F08F02230135C4F82032CF
:1054500070E700BF0B460146184600F009B800BFD0
:10546000062008B500F08CF80120FCF75BF800BFBF
:105470008C4600B5864613467146022062465DF8AA
:1054800004EB00F0C1B800BF014B1868704700BFC3
:105490001400002070B50D4E0D4D761BB61006D0D1
:1054A000002455F8043B01349847A642F9D1094E2F
:1054B000094D00F019F9761BB61006D0002455F8F6
:1054C000043B01349847A642F9D170BDCC5800087E
:1054D000CC580008D8580008CC580008830730B5CD
:1054E00048D0541E002A3FD00346CAB201E0013C16
:1054F0003AD303F8012B9D07F9D1032C2DD9CDB256
:1055000045EA05250F2C45EA054536D9A4F11002D8
:1055100022F00F0C03F1200EE6444FEA121C03F1B7
:10552000100242E9045542E9025510327245F8D1A1
:105530000CF1010214F00C0F03EB021204F00F0C3B
:1055400013D0ACF1040323F003030433134442F8F3
:10555000045B9342FBD10CF003042CB1CAB21C448F
:1055600003F8012B9C42FBD130BD64461346002C4E
:10557000F4D1F9E703461446BFE71A46A446E0E72C
:1055800038B5154B1F281D6820D8D5F8DC220446F5
:1055900062B152F820304BB1012B15D0591C0FD0FD
:1055A000002542F820509847284638BD284600F08C
:1055B00029F8224601462846BDE8384000F00EB8DA
:1055C000162301202B6038BD002038BD16234FF074
:1055D000FF302B6038BD00BF1400002070B50026DE
:1055E000074D0446084611462E60FBF791FF431C09
:1055F00000D070BD2B68002BFBD0236070BD00BFB6
:105600005C400020FBF782BF2DE9F047DFF87CA06B
:105610000646DAF8000098460F46914600F060F81A
:105620001B4B1B68D3F8484124B365681F2D26DC4B
:105630005EB96B1C0235DAF80000636044F825702F
:1056400000F050F80020BDE8F087012304EB85014D
:10565000C1F88890D4F88821AB401A43022EC4F8D0
:105660008821C1F80881E4D1D4F88C211343C4F80F
:105670008C31DEE703F5A674C3F84841D5E7DAF8C4
:10568000000000F02FF84FF0FF30DCE7400400206E
:1056900070570008024B13B1024800F005B870477C
:1056A00000000000B5560008002301461A461846BF
:1056B000FFF7AABF38B5084B084D5B1B9C1007D0FD
:1056C000043B1D44013C55F804399847002CF9D19E
:1056D000BDE8384000F00EB8DC580008D858000883
:1056E000704700BF704700BFF8B500BFF8BC08BCEA
:1056F0009E467047F8B500BFF8BC08BC9E46704790
:10570000726563764D6173746572436D6400000069
:10571000005700080000000000000000000000002A
:105720000000000000100000180000000000000051
:10573000000000000000000000000000010203045F
:105740000607080900000000010203040203040523
:10575000060708090A0B0C0D0E0F101001020000BD
:10576000546D725100000000546D72205376630036
:0457700018000020FD
:1057740008B10181B0B000840000000008B10181CB
:08578400B0B000840000000039
:10578C00C4A9FF7F0100000058AAFF7FB0A90280C6
:10579C00F0AAFF7FB0B0A88040ABFF7F01000000F3
:1057AC004CABFF7FB0B0AA8084ABFF7FAE71B280F0
:1057BC0054ACFF7F0100000050ACFF7FAB3F388042
:1057CC00B0ACFF7F01000000BCACFF7FB0B0AA8082
:1057DC00F8ACFF7F01000000A8ADFF7FAA0DB280DE
:1057EC0020AEFF7FB0AF0880C0B0FF7F010000008B
:1057FC00C4B0FF7FAD3F028030B3FF7F01000000DB
:10580C000CB5FF7F0084048020B5FF7F01000000F1
:10581C001CB5FF7FB0AD0480F8B7FF7F0084048017
:10582C0020B8FF7F44FFFF7F24B8FF7F48FFFF7F36
:10583C0030B8FF7F0100000020B9FF7FB0A91080B5
:10584C0050B9FF7F01000000A4F6FF7FB0B0A88024
:10585C00BCF6FF7F01000000C0F6FF7FB0AF0480F4
:10586C009CF7FF7FB0B0AC803CF8FF7FAB08B180F9
:10587C0068F8FF7F0100000084F8FF7FAB08B1805F
:10588C0014F9FF7F0100000044F9FF7FA908B180E3
:10589C0078F9FF7FB0B0A88084F9FF7FB0B0AE80FC
:1058AC00D8F9FF7F01000000F0F9FF7FAB08B18051
:1058BC0040FAFF7FB0AF028090FBFF7F0100000039
:0C58CC009556000835010008D1110008B5
:0458D80011010008B2
:1058DC00000000000024F400010000001000000093
:1058EC00AAAAAAAA180000200000000004030020A5
:1058FC006C030020D4030020000000000000000016
:10590C00000000000000000000000000000000008B
:10591C00000000000000000000000000000000007B
:10592C00000000000000000000000000000000006B
:10593C00000000000000000000000000000000005B
:10594C00000000000000000000000000000000004B
:10595C00000000000000000000000000000000003B
:10596C00000000000000000000000000000000002B
:10597C00000000000000000000000000000000001B
:10598C00000000000000000000000000000000000B
:10599C0001000000000000000E33CDAB34126DE6A8
:1059AC00ECDE05000B000000000000000000000011
:1059BC0000000000000000000000000000000000DB
:1059CC0000000000000000000000000000000000CB
:1059DC0000000000000000000000000000000000BB
:1059EC0000000000000000000000000000000000AB
:045D1C0058400020CB
:040000050800163D9C
:00000001FF
